:100000000C942A000C9447000C9447000C94470071
:100010000C9447000C9447000C9447000C94470044
:100020000C9447000C9447000C9447000C94470034
:100030000C9447000C948F070C9447000C944700D5
:100040000C9447000C9447000C9447000C94470014
:100050000C94470011241FBECFE5D8E0DEBFCDBF12
:1000600011E0A0E6B0E0E2E3FFE102C005900D92EE
:10007000AC36B107D9F711E0ACE6B1E001C01D9292
:10008000A637B107E1F70E946B060C94970F0C940A
:100090000000EF92FF920F931F937B018C0120E0F1
:1000A00030E040E05FE40E94490388238CF0C801FF
:1000B000B70120E030E040E05FE40E94C1010E940F
:1000C000A9039B01AC01205030404040504806C07D
:1000D000C801B7010E94A9039B01AC01B901CA0183
:1000E0001F910F91FF90EF900895A0E0B0E0EBE733
:1000F000F0E00C94EE0EDC012B01FA019C919230A1
:1001000008F439C1EB018881823008F433C194309E
:1001100069F4843009F02FC111969C91119789815F
:10012000981709F428C1A0E6B0E025C1843009F48D
:1001300021C18230A9F4923009F01DC19A01AD01AC
:1001400088E0EA010990AE01E90109929E0181501F
:10015000C1F7E201898111969C918923818308C1AD
:10016000923009F407C112962D903C901397EB0141
:100170008A819B811496AD90BD90CD90DC901797AD
:10018000EC80FD800E811F819101281B390BB90184
:1001900037FF04C066277727621B730B6032710537
:1001A0000CF061C0121613066CF537014801062EDB
:1001B00004C096948794779467940A94D2F721E0C8
:1001C00030E040E050E004C0220F331F441F551FB1
:1001D0006A95D2F721503040404050402E213F21B7
:1001E00040235123211531054105510521F021E01E
:1001F00030E040E050E079018A01E628F72808293C
:1002000019293CC0232BD1F1260E371E350146019A
:10021000062E04C096948794779467940A94D2F734
:1002200021E030E040E050E004C0220F331F441FC3
:10023000551F6A95D2F721503040404050402A2146
:100240003B214C215D21211531054105510521F04E
:1002500021E030E040E050E059016A01A628B728CB
:10026000C828D9280BC0821593052CF01C01AA249C
:10027000BB24650103C0EE24FF24870111969C91E5
:10028000D20111968C91981709F445C0992339F041
:10029000A80197012A193B094C095D0906C0A6016E
:1002A00095012E193F09400B510B57FD08C01182D3
:1002B0003382228224833583468357831DC081E0A5
:1002C00081833382228288279927DC01821B930B4A
:1002D000A40BB50B84839583A683B7830DC0220F2F
:1002E000331F441F551F24833583468357838281E0
:1002F000938101979383828324813581468157813D
:10030000DA01C9010197A109B1098F5F9F4FAF4F72
:10031000BF4328F30BC0918333822282EA0CFB1C7B
:100320000C1D1D1DE482F5820683178383E0808304
:10033000248135814681578157FF1AC0C901AA27F8
:1003400097FDA095BA2F81709070A070B0705695EF
:10035000479537952795822B932BA42BB52B848318
:100360009583A683B7838281938101969383828349
:10037000DF0101C0D201CD01CDB7DEB7E2E10C94BF
:100380000A0FA0E2B0E0E7ECF1E00C94FA0E69830A
:100390007A838B839C832D833E834F835887E9E048
:1003A000EE2EF12CEC0EFD1ECE010196B7010E943F
:1003B0009A058E010F5E1F4FCE010596B8010E946F
:1003C0009A058A8991E089278A8BC701B801AE0115
:1003D000475E5F4F0E9475000E94C504A096E6E04C
:1003E0000C94160FA0E2B0E0E8EFF1E00C94FA0EE6
:1003F00069837A838B839C832D833E834F835887C5
:10040000F9E0EF2EF12CEC0EFD1ECE010196B701A6
:100410000E949A058E010F5E1F4FCE010596B8010E
:100420000E949A05C701B801AE01475E5F4F0E9466
:1004300075000E94C504A096E6E00C94160FA0E299
:10044000B0E0E5E2F2E00C94EE0E69837A838B83F0
:100450009C832D833E834F835887CE010196BE0136
:10046000675F7F4F0E949A05CE010596BE016F5EC1
:100470007F4F0E949A059985923088F08989823051
:10048000C8F0943019F4823051F404C0843029F457
:10049000923081F480E690E0C6C0923049F420E0CA
:1004A0009A858A89981321E02A87CE010996BBC0D4
:1004B000823049F420E09A858A89981321E02A8BBA
:1004C000CE014196B0C02D843E844F8458886D88FB
:1004D0007E888F88988CEE24FF248701AA24BB2471
:1004E000650140E050E060E070E0E0E0F0E0C10174
:1004F00081709070892BE9F0E60CF71C081D191D1E
:100500009A01AB012A0D3B1D4C1D5D1D80E090E062
:10051000A0E0B0E0E614F7040805190520F481E036
:1005200090E0A0E0B0E0BA01A901480F591F6A1F8E
:100530007B1FAA0CBB1CCC1CDD1C97FE08C081E0F5
:1005400090E0A0E0B0E0A82AB92ACA2ADB2A3196B6
:10055000E032F10549F0660C771C881C991C569412
:10056000479437942794C3CFFA85EA892B893C892D
:100570008B859C85280F391F2E5F3F4F17C0CA01FE
:1005800081709070892B61F016950795F794E79428
:1005900080E090E0A0E0B0E8E82AF92A0A2B1B2BC3
:1005A00076956795579547952F5F3F4F77FDE7CF36
:1005B0000CC0440F551F661F771F17FD4160EE0CDE
:1005C000FF1C001F111F21503040403090E05907A0
:1005D00090E0690790E4790760F32B8F3C8FDB0193
:1005E000CA018F779070A070B07080349105A1051A
:1005F000B10561F447FD0AC0E114F10401051105DC
:1006000029F0405C5F4F6F4F7F4F40781A8EFE1786
:1006100011F081E08A8F4D8F5E8F6F8F78A383E01A
:10062000898FCE0149960E94C504A096E2E10C9400
:100630000A0FA8E1B0E0EFE1F3E00C94FA0E698351
:100640007A838B839C832D833E834F83588789E0F5
:10065000E82EF12CEC0EFD1ECE010196B7010E9492
:100660009A058E010F5E1F4FCE010596B8010E94BC
:100670009A058985823040F08989823028F0C70147
:10068000B8010E94120601C08FEF6896E6E00C9454
:10069000160FA8E1B0E0EFE4F3E00C94FA0E6983E2
:1006A0007A838B839C832D833E834F83588789E095
:1006B000E82EF12CEC0EFD1ECE010196B7010E9432
:1006C0009A058E010F5E1F4FCE010596B8010E945C
:1006D0009A058985823040F08989823028F0C701E7
:1006E000B8010E94120601C08FEF6896E6E00C94F4
:1006F000160FA8E1B0E0EFE7F3E00C94FA0E69837F
:100700007A838B839C832D833E834F83588789E034
:10071000E82EF12CEC0EFD1ECE010196B7010E94D1
:100720009A058E010F5E1F4FCE010596B8010E94FB
:100730009A058985823040F08989823028F0C70186
:10074000B8010E94120601C081E06896E6E00C94B0
:10075000160FACE0B0E0EFEAF3E00C94FE0E698314
:100760007A838B839C83CE010196BE016B5F7F4FA2
:100770000E949A058D81823061F1823050F184307F
:1007800021F48E81882351F12EC02F81388537FDC9
:1007900020C06E812F3131051CF06623F9F023C093
:1007A0008EE190E0821B930B29853A854B855C8511
:1007B00004C056954795379527958A95D2F76623B5
:1007C000B1F050954095309521953F4F4F4F5F4F79
:1007D0000EC020E030E040E050E009C02FEF3FEFD6
:1007E0004FEF5FE704C020E030E040E050E8B9019F
:1007F000CA012C96E2E00C941A0FA8E0B0E0E3E006
:10080000F4E00C94F60E7B018C01611571058105F5
:10081000910519F482E0898360C083E089838EE1C9
:10082000C82ED12CDC82CB82ED82FE820F8318870A
:10083000C801B7010E947604FC013197F7FF3BC065
:10084000222733272E1B3F0B57016801022E04C0BD
:10085000D694C794B794A7940A94D2F740E050E096
:1008600060E070E081E090E0A0E0B0E004C0880FBC
:10087000991FAA1FBB1F2A95D2F70197A109B10999
:100880008E219F21A023B1230097A105B10521F05E
:1008900041E050E060E070E04A295B296C297D2945
:1008A0004D835E836F8378878EE190E08E1B9F0B74
:1008B0009C838B8312C0309781F00E2E04C0EE0C07
:1008C000FF1C001F111F0A94D2F7ED82FE820F83D6
:1008D0001887CE1ADF0ADC82CB821A82CE010196FB
:1008E0000E94C5042896EAE00C94120FEF92FF9242
:1008F0000F931F937B018C0180E0E81680E0F806DF
:1009000081E0080780E0180788F48FEFE816F1040B
:100910000105110531F028F088E090E0A0E0B0E09A
:1009200017C080E090E0A0E0B0E012C080E0E816E0
:1009300080E0F80680E0080781E0180728F088E1E9
:1009400090E0A0E0B0E004C080E190E0A0E0B0E082
:1009500020E230E040E050E0281B390B4A0B5B0BF3
:1009600004C016950795F794E7948A95D2F7F70196
:10097000E859FF4F8081281B310941095109C901FC
:100980001F910F91FF90EF900895DF92EF92FF92E9
:100990000F931F93FC01E480F58006811781D180BD
:1009A0008081823048F480E090E0A0E1B0E0E82A65
:1009B000F92A0A2B1B2BA5C0843009F49FC0823072
:1009C00021F4EE24FF24870105C0E114F1040105A0
:1009D000110519F4E0E0F0E096C0628173819FEFA9
:1009E000623879070CF05BC022E83FEF261B370B1B
:1009F0002A3131052CF020E030E040E050E02AC000
:100A0000B801A701022E04C07695679557954795C2
:100A10000A94D2F781E090E0A0E0B0E004C0880F33
:100A2000991FAA1FBB1F2A95D2F70197A109B109E7
:100A30008E219F21A023B1230097A105B10521F0AC
:100A400081E090E0A0E0B0E09A01AB01282B392BC7
:100A50004A2B5B2BDA01C9018F779070A070B070C0
:100A600080349105A105B10539F427FF09C0205C48
:100A70003F4F4F4F5F4F04C0215C3F4F4F4F5F4F81
:100A8000E0E0F0E02030A0E03A07A0E04A07A0E470
:100A90005A0710F0E1E0F0E079018A0127C06038E0
:100AA000710564F5FB01E158FF4FD801C7018F774D
:100AB0009070A070B07080349105A105B10539F433
:100AC000E7FE0DC080E490E0A0E0B0E004C08FE35A
:100AD00090E0A0E0B0E0E80EF91E0A1F1B1F17FF10
:100AE00005C016950795F794E794319687E016951B
:100AF0000795F794E7948A95D1F705C0EE24FF2473
:100B00008701EFEFF0E06E2F679566276795902FCE
:100B10009F77D794DD24D7948E2F8695492F462B27
:100B2000582F5D29B701CA011F910F91FF90EF90D7
:100B3000DF900895FC01DB01408151812281622F09
:100B40006F7770E0221F2227221F9381892F880F41
:100B5000822B282F30E0991F9927991F11969C937B
:100B6000119721153105A9F541155105610571054B
:100B700011F482E037C082E89FEF13969C938E9326
:100B800012979A01AB0167E0220F331F441F551FD4
:100B90006A95D1F783E08C930DC0220F331F441F59
:100BA000551F12968D919C911397019713969C93C4
:100BB0008E931297203080E0380780E0480780E469
:100BC000580758F314962D933D934D935C931797C4
:100BD00008952F3F310579F44115510561057105DF
:100BE00019F484E08C93089564FF03C081E08C9332
:100BF00012C01C9210C02F57304013963C932E9376
:100C0000129783E08C9387E0440F551F661F771F70
:100C10008A95D1F7706414964D935D936D937C9390
:100C2000179708951F93DC01FB019C91923008F403
:100C300047C08081823008F443C0943051F411964B
:100C40001C91843099F58181682F70E0611B7109D6
:100C50003FC0843021F0923031F48230B9F181818B
:100C6000882389F12DC011961C9111978230F1F0E3
:100C700081811817D9F412962D913C911397828196
:100C800093818217930794F028173907BCF01496C4
:100C90008D919D910D90BC91A02D2481358146812F
:100CA0005781281739074A075B0718F4112341F0C9
:100CB0000AC082179307A407B50740F4112319F05F
:100CC00061E070E005C06FEF7FEF02C060E070E0B0
:100CD000CB011F910895DF93CF93CDB7DEB70E946C
:100CE000AC0B0E94510A84EB90E00E94B80A80E0AD
:100CF0000E94420B80E463E00E944A0E0E94D009E9
:100D000082E064E041E00E94C80B82E065E041E0DF
:100D10000E94C80B82E066E041E00E94C80B82E0BE
:100D200067E041E00E94C80B82E064E040E00E947E
:100D3000C80C82E065E040E00E94C80C82E066E0FA
:100D400040E00E94C80C82E067E040E00E94C80CCE
:100D500082E060E041E00E94C80B82E061E041E097
:100D60000E94C80B82E060E040E00E94C80C82E074
:100D700061E041E00E94C80C83E065E041E00E9430
:100D8000C80B0E9411070E94C606FBCFDF93CF93CA
:100D90000F92CDB7DEB71092710119823BC08981E5
:100DA000882F90E0FC01E359FE4F8081882379F180
:100DB00080917101882351F480E00E94820E90930B
:100DC00073018093720181E08093710180917201BF
:100DD0009091730122E08030920748F48981982F26
:100DE0009C5F82E0692F41E00E94C80C10C0809196
:100DF00072019091730122E08030920740F0898166
:100E0000982F9C5F82E0692F40E00E94C80C898186
:100E10008F5F89838981843010F20F90CF91DF91A9
:100E20000895DF93CF93CDB7DEB780916C0188230F
:100E300009F472C081E00E94820ECC01A0E0B0E013
:100E4000BC01CD010E94FD03DC01CB01BC01CD0141
:100E500023E23BED49EF5EE30E941F02DC01CB0180
:100E6000BC01CD010E94250FDC01CB01BC01CD01ED
:100E70000E944900DC01CB019093750180937401BD
:100E800080916B01882F90E005979C0180917401FF
:100E9000909175018217930778F080916B01282F4C
:100EA00030E080917401909175018217930720F4CE
:100EB00082E30E945C0B30C080916B01282F30E0F0
:100EC00080917401909175018217930788F0809149
:100ED0006B01882F90E005969C01809174019091A0
:100EE00075018217930720F486E90E945C0B14C0F9
:100EF00080916B01882F90E005969C018091740190
:100F0000909175018217930720F08FEF0E945C0B80
:100F100003C080E00E945C0BCF91DF9108951F9287
:100F20000F920FB60F9211242F933F934F935F931D
:100F30006F937F938F939F93AF93BF93EF93FF93A1
:100F4000DF93CF93CDB7DEB76097DEBFCDBFECE2C6
:100F5000F0E08081282F30E0388B2F878F859889AB
:100F60008F31910509F418C12F8538892032310558
:100F70000CF05BC08F8598898031910509F471C1AF
:100F80002F853889213131052CF58F8598898D3051
:100F9000910509F4BBC02F8538892E3031056CF4DA
:100FA0008F8598898B30910509F49AC02F853889EF
:100FB0002C30310509F49FC0DDC18F8598898E30B2
:100FC000910509F4AEC02F8538892F30310509F419
:100FD00013C1D0C18F8598898731910509F4CCC0A0
:100FE0002F853889283131056CF48F8598898531B2
:100FF000910509F4B1C02F8538892631310509F4EE
:10100000B3C0B8C18F8598898931910509F4E8C0CA
:101010002F853889293131050CF4B6C08F85988920
:101020008A31910509F40DC1A5C12F85388929326E
:10103000310509F481C08F8598898A3291052CF594
:101040002F8538892232310509F4BEC08F859889F1
:10105000833291056CF42F8538892032310509F4EB
:10106000A3C08F8598898132910509F4A5C082C1FA
:101070002F8538892332310509F4B8C08F859889C6
:101080008432910509F4E5C075C12F8538892C3269
:10109000310509F45DC08F8598898D3291056CF416
:1010A0002F8538892A32310509F44AC08F859889FD
:1010B0008B32910509F448C05DC12F8538892E32E5
:1010C000310509F4D7C08F8598898E3291050CF4CB
:1010D00083C02F8538892733310509F49CC04AC164
:1010E00082E064E00E94C80D8093690180916901EB
:1010F0000E94080A3FC182E065E00E94C80D80930B
:101100006901809169010E94080A34C182E066E0A9
:101110000E94C80D80936901809169010E94080AAC
:1011200029C182E067E00E94C80D80936901809127
:1011300069010E94080A1EC181E080936D011AC1F5
:1011400081E080936E0116C181E080936F0112C12E
:1011500081E0809370010EC182E064E041E00E9472
:10116000C80C10926D0106C182E065E041E00E946A
:10117000C80C10926E01FEC082E066E041E00E9461
:10118000C80C10926F01F6C082E067E041E00E9457
:10119000C80C10927001EEC082E064E040E00E9452
:1011A000C80C10926D01E6C082E065E040E00E944C
:1011B000C80C10926E01DEC082E066E040E00E9442
:1011C000C80C10926F01D6C082E067E040E00E9438
:1011D000C80C10927001CEC081E080936C01CAC02F
:1011E0008FEF0E945C0B10926C01C4C080E00E94E3
:1011F0005C0B10926C01BEC00E946A0B882319F42C
:101200001092690103C081E08093690180916901B6
:101210000E94080AAFC0AAE2B0E0EAE2F0E08081F2
:101220008F778C930E943F0A80936B0181E08093BB
:101230006C01AAE2B0E0EAE2F0E0808180688C9381
:1012400099C08AE590E00E94B80A82E080936A0122
:1012500091C084EB90E00E94B80A83E080936A0119
:1012600089C080916A0180936901809169010E941F
:10127000080A80C08AE590E00E94B80A82E0809364
:101280006A0180E090E0AAEFB4E48B879C87AD8789
:10129000BE876B857C858D859E8520E030E04AEF9A
:1012A00054E40E941F02DC01CB018F839887A98739
:1012B000BA876F81788589859A8520E030E040E89B
:1012C0005FE30E94790388232CF481E090E09E8301
:1012D0008D833FC06F81788589859A8520E03FEFB7
:1012E0004FE757E40E94190318164CF56B857C856F
:1012F0008D859E8520E030E040E251E40E941F028F
:10130000DC01CB01BC01CD010E944900DC01CB0115
:101310009E838D830FC088EC90E09C838B838B81B0
:101320009C810197F1F79C838B838D819E8101972E
:101330009E838D838D819E81009769F714C06F8194
:10134000788589859A850E944900DC01CB019E83BE
:101350008D838D819E819A83898389819A8101976A
:10136000F1F79A83898384EB90E00E94B80A83E0C6
:1013700080936A016096DEBFCDBFCF91DF91FF9170
:10138000EF91BF91AF919F918F917F916F915F91FD
:101390004F913F912F910F900FBE0F901F90189576
:1013A000DF93CF93CDB7DEB7A0E4B0E0E0E4F0E0A8
:1013B000808180688C93A0E4B0E0E0E4F0E080817C
:1013C00082608C93A0E4B0E0E0E4F0E0808184608F
:1013D0008C93E0E4F0E01082E9E2F0E083E38083C4
:1013E000AAE2B0E0EAE2F0E0808180618C93AAE2B8
:1013F000B0E0EAE2F0E0808188608C93AAE2B0E09D
:10140000EAE2F0E0808180688C93CF91DF910895CB
:10141000DF93CF930F92CDB7DEB78983EBE2F0E095
:101420008081829586958770882F90E0817090707A
:101430000097A1F3ECE2F0E0898180830F90CF91D7
:10144000DF910895DF93CF9300D0CDB7DEB79A83B5
:1014500089830BC0E981FA81208189819A81019673
:101460009A838983822F0E94080AE981FA81808108
:10147000882381F70F900F90CF91DF910895DF932C
:10148000CF93CDB7DEB7EBE2F0E08081881F8827ED
:10149000881F8130C1F7ECE2F0E08081CF91DF91CD
:1014A0000895DF93CF93CDB7DEB7AFE4B0E0EFE4BC
:1014B000F0E0808180688C93AFE4B0E0EFE4F0E08E
:1014C00080818F7B8C93AFE4B0E0EFE4F0E080812B
:1014D0008E7F8C93AFE4B0E0EFE4F0E08081826037
:1014E0008C93AEE4B0E0EEE4F0E0808188608C9311
:1014F000AEE4B0E0EEE4F0E0808180618C93AEE495
:10150000B0E0EEE4F0E08081887F8C93AEE4B0E060
:10151000EEE4F0E0808182608C938FE19EE40E9493
:10152000940ACF91DF910895DF93CF9300D0CDB788
:10153000DEB79A838983E6E4F0E089819A8191831A
:1015400080830F900F90CF91DF910895DF93CF9319
:1015500000D0CDB7DEB79A838983EAE4F0E08981D1
:101560009A81918380830F900F90CF91DF9108959E
:10157000DF93CF9300D0CDB7DEB79A8389832981DB
:101580003A8182E390E0AC01249FC001259F900D39
:10159000349F900D1124815E9C4D29E030E0B9010B
:1015A0000E94DA0ECB010E94A60A0F900F90CF91F5
:1015B000DF910895DF93CF9300D00F92CDB7DEB7C0
:1015C00089838981282F30E03B832A838A819B810C
:1015D0008130910509F442C02A813B8122303105D6
:1015E0002CF48A819B81009761F046C02A813B815F
:1015F00022303105A9F08A819B8183309105F9F071
:101600003BC0A3E5B0E0E3E5F0E080818F7B8C9305
:10161000A3E5B0E0E3E5F0E08081877F8C932CC008
:10162000A3E5B0E0E3E5F0E080818F7B8C93A3E558
:10163000B0E0E3E5F0E0808188608C931DC0A3E515
:10164000B0E0E3E5F0E0808180648C93A3E5B0E056
:10165000E3E5F0E0808188608C930EC0A3E5B0E004
:10166000E3E5F0E0808180648C93A3E5B0E0E3E5FE
:10167000F0E08081877F8C930F900F900F90CF9137
:10168000DF910895DF93CF930F92CDB7DEB78983B3
:10169000E2E5F0E01082ECE5F0E08981808381E012
:1016A00063E041E00E94C80BE3E5F0E08BE6808355
:1016B0000F90CF91DF910895DF93CF930F92CDB725
:1016C000DEB78983ECE5F0E0898180830F90CF91CC
:1016D000DF910895DF93CF93CDB7DEB7ECE5F0E06F
:1016E0008081CF91DF910895DF93CF93CDB7DEB79F
:1016F000A3E5B0E0E3E5F0E080818E7F8C93A3E585
:10170000B0E0E3E5F0E080818D7F8C93A3E5B0E06D
:10171000E3E5F0E080818B7F8C93CF91DF9108959A
:10172000DF93CF93CDB7DEB7A9E5B0E0E9E5F0E010
:10173000808181608C93CF91DF910895DF93CF9367
:10174000CDB7DEB7A9E5B0E0E9E5F0E080818E7FB6
:101750008C93CF91DF910895DF93CF93CDB7DEB710
:10176000AFE5B0E0EFE5F0E0808180688C93CF9149
:10177000DF910895DF93CF93CDB7DEB7AFE5B0E04B
:10178000EFE5F0E080818F778C93CF91DF91089522
:10179000DF93CF93CDB7DEB727970FB6F894DEBFB0
:1017A0000FBECDBF89836A834B838B81882309F069
:1017B00074C08981282F30E03F832E838E819F81E2
:1017C0008130910559F12E813F81223031052CF471
:1017D0008E819F81009769F0D2C02E813F81223097
:1017E000310589F18E819F818330910509F440C0D4
:1017F000C6C0AAE3B0E0EAE3F0E08081482F8A8126
:10180000282F30E081E090E0022E02C0880F991F5F
:101810000A94E2F7809584238C93B1C0A7E3B0E0EB
:10182000E7E3F0E08081482F8A81282F30E081E0D3
:1018300090E0022E02C0880F991F0A94E2F780956B
:1018400084238C939CC0A4E3B0E0E4E3F0E08081C7
:10185000482F8A81282F30E081E090E0022E02C0DC
:10186000880F991F0A94E2F7809584238C9387C090
:10187000A1E3B0E0E1E3F0E08081482F8A81282FE6
:1018800030E081E090E0022E02C0880F991F0A9498
:10189000E2F7809584238C9372C08B81813009F0AC
:1018A0006EC08981282F30E03D832C838C819D81FF
:1018B0008130910549F12C813D81223031052CF494
:1018C0008C819D81009761F05AC02C813D8122302E
:1018D000310571F18C819D8183309105E9F14FC013
:1018E000AAE3B0E0EAE3F0E08081482F8A81282F64
:1018F00030E081E090E0022E02C0880F991F0A9428
:10190000E2F7842B8C933BC0A7E3B0E0E7E3F0E081
:101910008081482F8A81282F30E081E090E0022EDC
:1019200002C0880F991F0A94E2F7842B8C9327C07A
:10193000A4E3B0E0E4E3F0E08081482F8A81282F1F
:1019400030E081E090E0022E02C0880F991F0A94D7
:10195000E2F7842B8C9313C0A1E3B0E0E1E3F0E065
:101960008081482F8A81282F30E081E090E0022E8C
:1019700002C0880F991F0A94E2F7842B8C93279654
:101980000FB6F894DEBF0FBECDBFCF91DF910895A3
:10199000DF93CF93CDB7DEB727970FB6F894DEBFAE
:1019A0000FBECDBF89836A834B838B81882309F067
:1019B00074C08981282F30E03F832E838E819F81E0
:1019C0008130910559F12E813F81223031052CF46F
:1019D0008E819F81009769F0D2C02E813F81223095
:1019E000310589F18E819F818330910509F440C0D2
:1019F000C6C0ABE3B0E0EBE3F0E08081482F8A8122
:101A0000282F30E081E090E0022E02C0880F991F5D
:101A10000A94E2F7809584238C93B1C0A8E3B0E0E8
:101A2000E8E3F0E08081482F8A81282F30E081E0D0
:101A300090E0022E02C0880F991F0A94E2F7809569
:101A400084238C939CC0A5E3B0E0E5E3F0E08081C3
:101A5000482F8A81282F30E081E090E0022E02C0DA
:101A6000880F991F0A94E2F7809584238C9387C08E
:101A7000A2E3B0E0E2E3F0E08081482F8A81282FE2
:101A800030E081E090E0022E02C0880F991F0A9496
:101A9000E2F7809584238C9372C08B81813009F0AA
:101AA0006EC08981282F30E03D832C838C819D81FD
:101AB0008130910549F12C813D81223031052CF492
:101AC0008C819D81009761F05AC02C813D8122302C
:101AD000310571F18C819D8183309105E9F14FC011
:101AE000ABE3B0E0EBE3F0E08081482F8A81282F60
:101AF00030E081E090E0022E02C0880F991F0A9426
:101B0000E2F7842B8C933BC0A8E3B0E0E8E3F0E07D
:101B10008081482F8A81282F30E081E090E0022EDA
:101B200002C0880F991F0A94E2F7842B8C9327C078
:101B3000A5E3B0E0E5E3F0E08081482F8A81282F1B
:101B400030E081E090E0022E02C0880F991F0A94D5
:101B5000E2F7842B8C9313C0A2E3B0E0E2E3F0E061
:101B60008081482F8A81282F30E081E090E0022E8A
:101B700002C0880F991F0A94E2F7842B8C93279652
:101B80000FB6F894DEBF0FBECDBFCF91DF910895A1
:101B9000DF93CF9300D000D000D0CDB7DEB78983DC
:101BA0006A838981282F30E03D832C834C815D81BD
:101BB0004130510549F18C819D818230910534F489
:101BC0002C813D812115310561F057C04C815D812B
:101BD0004230510561F18C819D8183309105D1F1B5
:101BE0004CC0E9E3F0E08081282F30E08A81882F23
:101BF00090E0A90102C0559547958A95E2F7CA0180
:101C0000582F51705B833AC0E6E3F0E08081282FC3
:101C100030E08A81882F90E0A90102C05595479550
:101C20008A95E2F7CA01582F51705B8327C0E3E31E
:101C3000F0E08081282F30E08A81882F90E0A90190
:101C400002C0559547958A95E2F7CA01582F517001
:101C50005B8314C0E0E3F0E08081282F30E08A81CC
:101C6000882F90E0A90102C0559547958A95E2F723
:101C7000CA01582F51705B8301C002C08B818E83D3
:101C80008E8126960FB6F894DEBF0FBECDBFCF91E2
:101C9000DF910895DF93CF9300D0CDB7DEB789836E
:101CA0006A83A7E2B0E0E7E2F0E080818F718C9375
:101CB000A7E2B0E0E7E2F0E090818981892B8C9384
:101CC000A6E2B0E0E6E2F0E08081887F8C93A6E2B5
:101CD000B0E0E6E2F0E090818A81892B8C93A7E264
:101CE000B0E0E7E2F0E080818F7D8C93A6E2B0E087
:101CF000E6E2F0E0808180688C930F900F90CF91A6
:101D0000DF910895DF93CF930F92CDB7DEB789832C
:101D1000A7E2B0E0E7E2F0E08081807F8C93A7E269
:101D2000B0E0E7E2F0E090818981892B8C93A6E214
:101D3000B0E0E6E2F0E0808180648C93E6E2F0E0DF
:101D400080818295869586958370882F90E081703A
:101D50009070882399F7E4E2F0E0808191810F9000
:101D6000CF91DF910895DF93CF930F92CDB7DEB778
:101D70008983A7E2B0E0E7E2F0E08081807F8C9386
:101D8000A7E2B0E0E7E2F0E090818981892B8C93B3
:101D9000A6E2B0E0E6E2F0E0808188608C93A6E203
:101DA000B0E0E6E2F0E0808180648C930F90CF9108
:101DB000DF910895AA1BBB1B51E107C0AA1FBB1FDF
:101DC000A617B70710F0A61BB70B881F991F5A95C7
:101DD000A9F780959095BC01CD0108952F923F926F
:101DE0004F925F926F927F928F929F92AF92BF922B
:101DF000CF92DF92EF92FF920F931F93CF93DF93D7
:101E0000CDB7DEB7CA1BDB0B0FB6F894DEBF0FBE33
:101E1000CDBF09942A88398848885F846E847D8480
:101E20008C849B84AA84B984C884DF80EE80FD8082
:101E30000C811B81AA81B981CE0FD11D0FB6F894F8
:101E4000DEBF0FBECDBFED01089550D0E0F09E374C
:101E5000D8F09639B8F49E3848F4672F782F882741
:101E6000985FF9CF86957795679593959539D0F3D7
:101E7000B62FB1706B0F711D811D20F4879577957A
:101E80006795939502C01CC04CC0882371F47723DA
:101E900021F09850872B762F07C0662311F49927DD
:101EA0000DC09051862B70E060E02AF09A95660F85
:101EB000771F881FDAF7880F9695879597F9089509
:101EC0009F3F31F0915020F4879577956795B795AE
:101ED000880F911D9695879597F9089557FD90580D
:101EE000440F551F59F05F3F71F04795880F97FBDE
:101EF000991F61F09F3F79F0879508951216130698
:101F00001406551FF2CF4695F1DF08C016161706C6
:101F10001806991FF1CF86957105610508940895FB
:101F2000E894BB2766277727CB0197F90895F894A3
:021F3000FFCFE1
:101F3200000000000000000000010202030303038E
:101F42000404040404040404050505050505050547
:101F52000505050505050505060606060606060627
:101F6200060606060606060606060606060606060F
:101F720006060606060606060707070707070707F7
:101F820007070707070707070707070707070707DF
:101F920007070707070707070707070707070707CF
:101FA20007070707070707070707070707070707BF
:101FB20007070707070707070808080808080808A7
:101FC200080808080808080808080808080808088F
:101FD200080808080808080808080808080808087F
:101FE200080808080808080808080808080808086F
:101FF200080808080808080808080808080808085F
:10200200080808080808080808080808080808084E
:10201200080808080808080808080808080808083E
:10202200080808080808080808080808080808082E
:0C2032000808080808080808FFFF031948
:00000001FF
