:100000000C942A000C943F000C943F000C943F0089
:100010000C943F000C943F000C943F000C943F0064
:100020000C943F000C943F000C943F000C943F0054
:100030000C943F000C943F000C943F000C943F0044
:100040000C943F000C943F000C943F000C943F0034
:100050000C943F0011241FBECFE5D8E0DEBFCDBF1A
:1000600013E0A0E6B0E0E2E2F9E702C005900D92ED
:10007000A035B107D9F70E94F4060C948F3C0C947C
:100080000000EF92FF920F931F937B018C0120E001
:1000900030E040E05FE40E94ED0388238CF0C8016B
:1000A000B70120E030E040E05FE40E94B9010E9427
:1000B000AB049B01AC01205030404040504806C08A
:1000C000C801B7010E94AB049B01AC01B901CA0190
:1000D0001F910F91FF90EF900895A0E0B0E0E3E74B
:1000E000F0E00C94133CDC012B01FA019C9192305E
:1000F00008F439C1EB018881823008F433C19430AF
:1001000069F4843009F02FC111969C91119789816F
:10011000981709F428C1A0E3B2E025C1843009F49E
:1001200021C18230A9F4923009F01DC19A01AD01BC
:1001300088E0EA010990AE01E90109929E0181502F
:10014000C1F7E201898111969C918923818308C1BD
:10015000923009F407C112962D903C901397EB0151
:100160008A819B811496AD90BD90CD90DC901797BD
:10017000EC80FD800E811F819101281B390BB90194
:1001800037FF04C066277727621B730B6032710547
:100190000CF061C0121613066CF537014801062EEB
:1001A00004C096948794779467940A94D2F721E0D8
:1001B00030E040E050E004C0220F331F441F551FC1
:1001C0006A95D2F721503040404050402E213F21C7
:1001D00040235123211531054105510521F021E02E
:1001E00030E040E050E079018A01E628F72808294C
:1001F00019293CC0232BD1F1260E371E35014601AB
:10020000062E04C096948794779467940A94D2F744
:1002100021E030E040E050E004C0220F331F441FD3
:10022000551F6A95D2F721503040404050402A2156
:100230003B214C215D21211531054105510521F05E
:1002400021E030E040E050E059016A01A628B728DB
:10025000C828D9280BC0821593052CF01C01AA24AC
:10026000BB24650103C0EE24FF24870111969C91F5
:10027000D20111968C91981709F445C0992339F051
:10028000A80197012A193B094C095D0906C0A6017E
:1002900095012E193F09400B510B57FD08C01182E3
:1002A0003382228224833583468357831DC081E0B5
:1002B00081833382228288279927DC01821B930B5A
:1002C000A40BB50B84839583A683B7830DC0220F3F
:1002D000331F441F551F24833583468357838281F0
:1002E000938101979383828324813581468157814D
:1002F000DA01C9010197A109B1098F5F9F4FAF4F83
:10030000BF4328F30BC0918333822282EA0CFB1C8B
:100310000C1D1D1DE482F5820683178383E0808314
:10032000248135814681578157FF1AC0C901AA2708
:1003300097FDA095BA2F81709070A070B0705695FF
:10034000479537952795822B932BA42BB52B848328
:100350009583A683B7838281938101969383828359
:10036000DF0101C0D201CD01CDB7DEB7E2E10C94CF
:100370002F3CA0E2B0E0EFEBF1E00C941F3C69836E
:100380007A838B839C832D833E834F835887E9E058
:10039000EE2EF12CEC0EFD1ECE010196B7010E944F
:1003A00023068E010F5E1F4FCE010596B8010E94F5
:1003B00023068A8991E089278A8BC701B801AE019B
:1003C000475E5F4F0E946D000E944E05A096E6E0DA
:1003D0000C943B3CA0E2B0E0E0EFF1E00C941F3C59
:1003E00069837A838B839C832D833E834F835887D5
:1003F000F9E0EF2EF12CEC0EFD1ECE010196B701B7
:100400000E9423068E010F5E1F4FCE010596B80194
:100410000E942306C701B801AE01475E5F4F0E94EC
:100420006D000E944E05A096E6E00C943B3CA0E2D5
:10043000B0E0EDE1F2E00C94133C69837A838B83A6
:100440009C832D833E834F835887CE010196BE0146
:10045000675F7F4F0E942306CE010596BE016F5E47
:100460007F4F0E9423069985923088F089898230D7
:10047000C8F0943019F4823051F404C0843029F467
:10048000923081F480E392E0C6C0923049F420E0DB
:100490009A858A89981321E02A87CE010996BBC0E4
:1004A000823049F420E09A858A89981321E02A8BCA
:1004B000CE014196B0C02D843E844F8458886D880B
:1004C0007E888F88988CEE24FF248701AA24BB2481
:1004D000650140E050E060E070E0E0E0F0E0C10184
:1004E00081709070892BE9F0E60CF71C081D191D2E
:1004F0009A01AB012A0D3B1D4C1D5D1D80E090E073
:10050000A0E0B0E0E614F7040805190520F481E046
:1005100090E0A0E0B0E0BA01A901480F591F6A1F9E
:100520007B1FAA0CBB1CCC1CDD1C97FE08C081E005
:1005300090E0A0E0B0E0A82AB92ACA2ADB2A3196C6
:10054000E032F10549F0660C771C881C991C569422
:10055000479437942794C3CFFA85EA892B893C893D
:100560008B859C85280F391F2E5F3F4F17C0CA010E
:1005700081709070892B61F016950795F794E79438
:1005800080E090E0A0E0B0E8E82AF92A0A2B1B2BD3
:1005900076956795579547952F5F3F4F77FDE7CF46
:1005A0000CC0440F551F661F771F17FD4160EE0CEE
:1005B000FF1C001F111F21503040403090E05907B0
:1005C00090E0690790E4790760F32B8F3C8FDB01A3
:1005D000CA018F779070A070B07080349105A1052A
:1005E000B10561F447FD0AC0E114F10401051105EC
:1005F00029F0405C5F4F6F4F7F4F40781A8EFE1797
:1006000011F081E08A8F4D8F5E8F6F8F78A383E02A
:10061000898FCE0149960E944E05A096E2E10C9486
:100620002F3CA8E1B0E0E7E1F3E00C941B3C6983C8
:100630007A838B839C832D833E834F835887B9E0D5
:10064000EB2EF12CEC0EFD1ECE010196B7010E949F
:1006500023068E010F5E1F4FCE010596B8010E9442
:1006600023062985223008F47EC03989323010F4FF
:10067000B8017CC08A859A8989278A87243011F03D
:10068000223031F4231709F06EC060E372E06EC0CF
:10069000343039F41D861E861F86188A1C861B86F8
:1006A00004C0323021F484E08987B7015FC02B8514
:1006B0003C858B899C89281B390B3C872B87ED84D3
:1006C000FE840F851889AD88BE88CF88D88CEA143F
:1006D000FB040C051D0540F4EE0CFF1C001F111F50
:1006E000215030403C872B8720E030E040E050E054
:1006F00080E090E0A0E0B0E460E070E0EA14FB0489
:100700000C051D0540F0282B392B4A2B5B2BEA18D2
:10071000FB080C091D09B695A79597958795EE0CD2
:10072000FF1C001F111F6F5F7F4F6F31710531F785
:10073000DA01C9018F779070A070B0708034910594
:10074000A105B10561F427FD0AC0E114F10401051A
:10075000110529F0205C3F4F4F4F5F4F20782D87C8
:100760003E874F87588BBE01675F7F4FCB010E944A
:100770004E056896EAE00C94373CA8E1B0E0E3EC63
:10078000F3E00C941F3C69837A838B839C832D83D5
:100790003E834F83588789E0E82EF12CEC0EFD1E36
:1007A000CE010196B7010E9423068E010F5E1F4FF6
:1007B000CE010596B8010E9423068985823040F05B
:1007C0008989823028F0C701B8010E949B0601C0C8
:1007D0008FEF6896E6E00C943B3CA8E1B0E0E3EFD5
:1007E000F3E00C941F3C69837A838B839C832D8375
:1007F0003E834F83588789E0E82EF12CEC0EFD1ED6
:10080000CE010196B7010E9423068E010F5E1F4F95
:10081000CE010596B8010E9423068985823040F0FA
:100820008989823028F0C701B8010E949B0601C067
:100830008FEF6896E6E00C943B3CA8E1B0E0E3E281
:10084000F4E00C941F3C69837A838B839C832D8313
:100850003E834F83588789E0E82EF12CEC0EFD1E75
:10086000CE010196B7010E9423068E010F5E1F4F35
:10087000CE010596B8010E9423068985823040F09A
:100880008989823028F0C701B8010E949B0601C007
:1008900081E06896E6E00C943B3CA8E0B0E0E3E53C
:1008A000F4E00C941C3C9B01AC0183E08983DA01E9
:1008B000C9018827B7FD83959927AA27BB27B82E9A
:1008C000211531054105510519F482E089833AC0AB
:1008D0008823A9F0203080E0380780E0480780E8CE
:1008E000580729F460E070E080E09FEC30C0EE240F
:1008F000FF248701E21AF30A040B150B02C07901E9
:100900008A018EE1C82ED12CDC82CB82ED82FE8260
:100910000F831887C801B7010E94FF0401971816BA
:10092000190684F4082E04C0EE0CFF1C001F111FD2
:100930000A94D2F7ED82FE820F831887C81AD90A6B
:10094000DC82CB82BA82CE0101960E944E052896A7
:10095000E9E00C94383CACE0B0E0E1EBF4E00C945E
:10096000233C69837A838B839C83CE010196BE01ED
:100970006B5F7F4F0E9423068D81823061F1823050
:1009800050F1843021F48E81882351F12EC02F81C3
:10099000388537FD20C06E812F3131051CF066236C
:1009A000F9F023C08EE190E0821B930B29853A85F4
:1009B0004B855C8504C056954795379527958A9554
:1009C000D2F76623B1F050954095309521953F4F71
:1009D0004F4F5F4F0EC020E030E040E050E009C0D4
:1009E0002FEF3FEF4FEF5FE704C020E030E040E043
:1009F00050E8B901CA012C96E2E00C943F3CEF921A
:100A0000FF920F931F937B018C0180E0E81680E03A
:100A1000F80681E0080780E0180788F48FEFE816F1
:100A2000F1040105110531F028F088E090E0A0E024
:100A3000B0E017C080E090E0A0E0B0E012C080E03D
:100A4000E81680E0F80680E0080781E0180728F043
:100A500088E190E0A0E0B0E004C080E190E0A0E098
:100A6000B0E020E230E040E050E0281B390B4A0BB8
:100A70005B0B04C016950795F794E7948A95D2F717
:100A8000F701E85CFD4F8081281B310941095109BC
:100A9000C9011F910F91FF90EF900895DF92EF929F
:100AA000FF920F931F93FC01E480F580068117816C
:100AB000D1808081823048F480E090E0A0E1B0E015
:100AC000E82AF92A0A2B1B2BA5C0843009F49FC001
:100AD000823021F4EE24FF24870105C0E114F104E3
:100AE0000105110519F4E0E0F0E096C06281738120
:100AF0009FEF623879070CF05BC022E83FEF261BBE
:100B0000370B2A3131052CF020E030E040E050E096
:100B10002AC0B801A701022E04C0769567955795A3
:100B200047950A94D2F781E090E0A0E0B0E004C0DD
:100B3000880F991FAA1FBB1F2A95D2F70197A109F9
:100B4000B1098E219F21A023B1230097A105B105F2
:100B500021F081E090E0A0E0B0E09A01AB01282B09
:100B6000392B4A2B5B2BDA01C9018F779070A0706B
:100B7000B07080349105A105B10539F427FF09C093
:100B8000205C3F4F4F4F5F4F04C0215C3F4F4F4FA2
:100B90005F4FE0E0F0E02030A0E03A07A0E04A0735
:100BA000A0E45A0710F0E1E0F0E079018A0127C0E3
:100BB0006038710564F5FB01E158FF4FD801C701AA
:100BC0008F779070A070B07080349105A105B10549
:100BD00039F4E7FE0DC080E490E0A0E0B0E004C08E
:100BE0008FE390E0A0E0B0E0E80EF91E0A1F1B1FA3
:100BF00017FF05C016950795F794E794319687E09F
:100C000016950795F794E7948A95D1F705C0EE24D9
:100C1000FF248701EFEFF0E06E2F67956627679559
:100C2000902F9F77D794DD24D7948E2F8695492FC8
:100C3000462B582F5D29B701CA011F910F91FF90D4
:100C4000EF90DF900895FC01DB014081518122810A
:100C5000622F6F7770E0221F2227221F9381892F36
:100C6000880F822B282F30E0991F9927991F119602
:100C70009C93119721153105A9F541155105610581
:100C8000710511F482E037C082E89FEF13969C93C0
:100C90008E9312979A01AB0167E0220F331F441F16
:100CA000551F6A95D1F783E08C930DC0220F331F37
:100CB000441F551F12968D919C911397019713967F
:100CC0009C938E931297203080E0380780E048078D
:100CD00080E4580758F314962D933D934D935C93FD
:100CE000179708952F3F310579F441155105610596
:100CF000710519F484E08C93089564FF03C081E0CA
:100D00008C9312C01C9210C02F57304013963C9306
:100D10002E93129783E08C9387E0440F551F661F34
:100D2000771F8A95D1F7706414964D935D936D93F8
:100D30007C93179708951F93DC01FB019C919230DF
:100D400008F447C08081823008F443C0943051F4E5
:100D500011961C91843099F58181682F70E0611B98
:100D600071093FC0843021F0923031F48230B9F102
:100D70008181882389F12DC011961C9111978230B1
:100D8000F1F081811817D9F412962D913C911397A7
:100D9000828193818217930794F028173907BCF05A
:100DA00014968D919D910D90BC91A02D248135813B
:100DB00046815781281739074A075B0718F4112322
:100DC00041F00AC082179307A407B50740F4112326
:100DD00019F061E070E005C06FEF7FEF02C060E0E6
:100DE00070E0CB011F9108950F931F93DF93CF9372
:100DF000CDB7DEB7CB52D2400FB6F894DEBF0FBEF0
:100E0000CDBF0E9439270E94453B0E94822B0E9441
:100E1000BF2681E060E041E00E94002981E061E0BE
:100E200041E00E94002981E062E041E00E94002947
:100E300081E060E040E00E94002A81E061E040E063
:100E40000E94002A81E062E041E00E94002AFE0147
:100E5000E35EFD4F81E08083FE01E25EFD4F8FEF98
:100E60008083FE01E45EFD4F8FEF8083FE01E55E2F
:100E7000FD4F1082FE01E65EFD4F1082FE01E75E2F
:100E8000FD4F1082FE01E85EFD4F1082FE01E15E23
:100E9000FD4F8FEF8083FE01E15EFD4F8FEF818379
:100EA000FE01E15EFD4F8FEF8283FE01E15EFD4FAB
:100EB0008FEF8383FE01ED5DFD4F8FEF8083FE0199
:100EC000ED5DFD4F8FEF8183FE01ED5DFD4F8FEFF7
:100ED0008283FE01ED5DFD4F8FEF8383FE01E95EAE
:100EE000FD4F81E08083FE01E95DFD4F1082FE0130
:100EF000E85DFD4F1082FE01EB5EFD4F108280E643
:100F000090E060E043E00E94803A8BE690E061E090
:100F100043E00E94803AFE01EF5EFD4F80E090E0EA
:100F2000AAE7B4E480839183A283B3838E01035F35
:100F30001D4FFE01EF5EFD4F6081718182819381C3
:100F400020E030E04AEF54E40E941702DC01CB01BC
:100F5000F80180839183A283B383FE01E35FFD4F99
:100F6000608171818281938120E030E040E85FE31D
:100F70000E941D04882344F4FE01E55FFD4F81E0DB
:100F800090E09183808364C0FE01E35FFD4F608148
:100F900071818281938120E03FEF4FE757E40E9407
:100FA000BD0318160CF043C0FE01EF5EFD4F6081DB
:100FB00071818281938120E030E040E251E40E941F
:100FC0001702DC01CB018E01055F1D4FBC01CD0175
:100FD0000E944100DC01CB01F801918380831FC096
:100FE000FE01E75FFD4F88EC90E091838083FE0176
:100FF000E75FFD4F808191810197F1F7FE01E75F87
:10100000FD4F91838083DE01A55FBD4FFE01E55F4B
:10101000FD4F80819181019711969C938E93FE01E3
:10102000E55FFD4F808191810097D1F627C08E0149
:10103000055F1D4FFE01E35FFD4F6081718182817D
:1010400093810E944100DC01CB01F80191838083F0
:10105000DE01A95FBD4FFE01E55FFD4F80819181FB
:101060008D939C93FE01E95FFD4F808191810197F3
:10107000F1F7FE01E95FFD4F918380830E941F3BE2
:101080009E01285D3D4F80E091E0B9010E94F72765
:10109000FE01E85DFD4F8081813009F4A4C286E73E
:1010A00090E060E040E00E94803A86E890E061E0F5
:1010B00040E00E94803AFE01ED5FFD4F80E090E04D
:1010C000A8E4B4E480839183A283B3838E010150AA
:1010D0001E4FFE01ED5FFD4F608171818281938122
:1010E00020E030E04AEF54E40E941702DC01CB011B
:1010F000F80180839183A283B383FE01E150FE4F08
:10110000608171818281938120E030E040E85FE37B
:101110000E941D04882344F4FE01E350FE4F81E049
:1011200090E09183808364C0FE01E150FE4F6081B6
:1011300071818281938120E03FEF4FE757E40E9465
:10114000BD0318160CF043C0FE01ED5FFD4F60813A
:1011500071818281938120E030E040E251E40E947D
:101160001702DC01CB018E0103501E4FBC01CD01E3
:101170000E944100DC01CB01F801918380831FC0F4
:10118000FE01E550FE4F88EC90E091838083FE01E4
:10119000E550FE4F808191810197F1F7FE01E55006
:1011A000FE4F91838083DE01A350BE4FFE01E350CA
:1011B000FE4F80819181019711969C938E93FE0141
:1011C000E350FE4F808191810097D1F627C08E01B8
:1011D00003501E4FFE01E150FE4F608171818281FC
:1011E00093810E944100DC01CB01F801918380834F
:1011F000DE01A750BE4FFE01E350FE4F808191817A
:101200008D939C93FE01E750FE4F80819181019761
:10121000F1F7FE01E750FE4F918380830E941F3B50
:1012200085E990E060E040E00E94803A84EA90E046
:1012300061E040E00E94803AFE01EA5EFD4F1082CC
:10124000FAC0CE01825E9D4F0E94A426FE01E25E9E
:10125000FD4F8081803308F4EEC0FE01E25EFD4F59
:1012600080818A3308F0E7C0FE01EA5EFD4F80818D
:10127000282F30E0FE01E25EFD4F4081CE01815E0D
:101280009D4FFC01E20FF31F4083FE01E25EFD4F24
:101290002081FE01EA5EFD4F8081982F955F822FAD
:1012A00061E0492F0E94B23AFE01EB50FE4F80E010
:1012B00090E0A6E9B2E480839183A283B3838E0198
:1012C0000F501E4FFE01EB50FE4F608171818281F5
:1012D000938120E030E04AEF54E40E941702DC01E1
:1012E000CB01F80180839183A283B383FE01EF5089
:1012F000FE4F608171818281938120E030E040E87F
:101300005FE30E941D04882344F4FE01E151FE4F77
:1013100081E090E09183808364C0FE01EF50FE4F36
:10132000608171818281938120E03FEF4FE757E434
:101330000E94BD0318160CF043C0FE01EB50FE4F97
:10134000608171818281938120E030E040E251E44C
:101350000E941702DC01CB018E0101511E4FBC011E
:10136000CD010E944100DC01CB01F8019183808313
:101370001FC0FE01E351FE4F88EC90E09183808313
:10138000FE01E351FE4F808191810197F1F7FE014B
:10139000E351FE4F91838083DE01A151BE4FFE01D8
:1013A000E151FE4F80819181019711969C938E931C
:1013B000FE01E151FE4F808191810097D1F627C057
:1013C0008E0101511E4FFE01EF50FE4F6081718171
:1013D000828193810E944100DC01CB01F80191835D
:1013E0008083DE01A551BE4FFE01E151FE4F808199
:1013F00091818D939C93FE01E551FE4F80819181F7
:101400000197F1F7FE01E551FE4F91838083FE01C4
:10141000EA5EFD4F8081982F955F8AE261E0492F57
:101420000E94B23ADE01AA5EBD4FFE01EA5EFD4FA8
:1014300080818F5F8C93FE01EA5EFD4F8081843056
:1014400008F4FFCE9E01215E3D4F82E091E0B9019C
:1014500044E00E94572880E091E061E00E94B627B6
:101460000E941F3B80EB90E060E043E00E94803AE6
:10147000FE01E951FE4F80E090E0A8E4B4E48083EF
:101480009183A283B3838E010D511E4FFE01E9515A
:10149000FE4F608171818281938120E030E04AEFCC
:1014A00054E40E941702DC01CB01F8018083918390
:1014B000A283B383FE01ED51FE4F60817181828171
:1014C000938120E030E040E85FE30E941D04882320
:1014D00044F4FE01EF51FE4F81E090E09183808360
:1014E00064C0FE01ED51FE4F608171818281938164
:1014F00020E03FEF4FE757E40E94BD0318160CF0C1
:1015000043C0FE01E951FE4F608171818281938168
:1015100020E030E040E251E40E941702DC01CB0100
:101520008E010F511E4FBC01CD010E944100DC0114
:10153000CB01F801918380831FC0FE01E152FE4F71
:1015400088EC90E091838083FE01E152FE4F808120
:1015500091810197F1F7FE01E152FE4F9183808363
:10156000DE01AF51BE4FFE01EF51FE4F80819181F0
:10157000019711969C938E93FE01EF51FE4F80814F
:1015800091810097D1F627C08E010F511E4FFE01A9
:10159000ED51FE4F60817181828193810E944100F3
:1015A000DC01CB01F80191838083DE01A352BE4FA1
:1015B000FE01EF51FE4F808191818D939C93FE013E
:1015C000E352FE4F808191810197F1F7FE01E352D2
:1015D000FE4F918380830E941F3B8AE091E060E090
:1015E0000E94B62708C09E01295D3D4F8AE091E028
:1015F000B9010E94F727FE01E95DFD4F808181302E
:1016000009F0D8C08BEB90E060E040E00E94803AA7
:1016100089EC90E061E040E00E94803A81E060E087
:1016200041E00E94002AFE01E752FE4F80E090E474
:10163000ACE9B5E480839183A283B3838E010B521E
:101640001E4FFE01E752FE4F6081718182819381BE
:1016500020E030E04AEF54E40E941702DC01CB01A5
:10166000F80180839183A283B383FE01EB52FE4F86
:10167000608171818281938120E030E040E85FE306
:101680000E941D04882344F4FE01ED52FE4F81E0C8
:1016900090E09183808364C0FE01EB52FE4F608135
:1016A00071818281938120E03FEF4FE757E40E94F0
:1016B000BD0318160CF043C0FE01E752FE4F6081D7
:1016C00071818281938120E030E040E251E40E9408
:1016D0001702DC01CB018E010D521E4FBC01CD0162
:1016E0000E944100DC01CB01F801918380831FC07F
:1016F000FE01EF52FE4F88EC90E091838083FE0163
:10170000EF52FE4F808191810197F1F7FE01EF5278
:10171000FE4F91838083DE01AD52BE4FFE01ED523C
:10172000FE4F80819181019711969C938E93FE01CB
:10173000ED52FE4F808191810097D1F627C08E0136
:101740000D521E4FFE01EB52FE4F6081718182816E
:1017500093810E944100DC01CB01F80191838083D9
:10176000DE01A153BE4FFE01ED52FE4F80819181FB
:101770008D939C93FE01E153FE4F808191810197EF
:10178000F1F7FE01E153FE4F9183808381E060E039
:1017900040E00E94002AFE01EB5EFD4F1082FE0138
:1017A000E95DFD4F10828AE091E060E00E94B6277B
:1017B0000E941F3BFE01EA5EFD4F108288ED90E023
:1017C00060E040E00E94803A88EE90E061E040E016
:1017D0000E94803A81E060E00E94563AF3C0CE0158
:1017E000825E9D4F0E94A426FE01E25EFD4F808135
:1017F000803308F4E7C0FE01E25EFD4F80818A334A
:1018000008F0E0C0FE01EA5EFD4F8081282F30E045
:10181000FE01E25EFD4F4081CE018D5D9D4FFC01DA
:10182000E20FF31F4083FE01E25EFD4F8081FE0167
:10183000EA5EFD4F61E040810E94B23AFE01E5534D
:10184000FE4F80E090E0A6E9B2E480839183A2831A
:10185000B3838E0109531E4FFE01E553FE4F608195
:1018600071818281938120E030E04AEF54E40E944C
:101870001702DC01CB01F80180839183A283B3833B
:10188000FE01E953FE4F608171818281938120E0E6
:1018900030E040E85FE30E941D04882344F4FE0129
:1018A000EB53FE4F81E090E09183808364C0FE01A2
:1018B000E953FE4F608171818281938120E03FEF87
:1018C0004FE757E40E94BD0318160CF043C0FE0119
:1018D000E553FE4F608171818281938120E030E089
:1018E00040E251E40E941702DC01CB018E010B5350
:1018F0001E4FBC01CD010E944100DC01CB01F8016B
:10190000918380831FC0FE01ED53FE4F88EC90E071
:1019100091838083FE01ED53FE4F80819181019779
:10192000F1F7FE01ED53FE4F91838083DE01AB534F
:10193000BE4FFE01EB53FE4F8081918101971196BE
:101940009C938E93FE01EB53FE4F80819181009713
:10195000D1F627C08E010B531E4FFE01E953FE4FF7
:1019600060817181828193810E944100DC01CB0101
:10197000F80191838083DE01AF53BE4FFE01EB532C
:10198000FE4F808191818D939C93FE01EF53FE4F1A
:10199000808191810197F1F7FE01EF53FE4F918312
:1019A0008083FE01EA5EFD4F8AE261E040810E9491
:1019B000B23ADE01AA5EBD4FFE01EA5EFD4F8081B4
:1019C0008F5F8C93FE01EA5EFD4F8081843008F4C6
:1019D00006CF0E941F3BFE01E95EFD4F81E0808340
:1019E000FE01EA5EFD4F108233C0FE01E75DFD4F50
:1019F0001082FE01EA5EFD4F8081882F90E08E5FAD
:101A00009E4F9E01275D3D4FB9010E94F727FE01C1
:101A1000EA5EFD4F8081282F30E0CE018D5D9D4F25
:101A2000FC01E20FF31F9081FE01E75DFD4F808115
:101A3000981729F0FE01E95EFD4F10820FC0DE010C
:101A4000AA5EBD4FFE01EA5EFD4F80818F5F8C93E1
:101A5000FE01EA5EFD4F8081843038F2FE01E95ECE
:101A6000FD4F8081813009F04CC28DEE90E060E046
:101A700043E00E94803AFE01E354FE4F80E090E094
:101A8000A8E4B4E480839183A283B3838E010754D6
:101A90001E4FFE01E354FE4F60817181828193816C
:101AA00020E030E04AEF54E40E941702DC01CB0151
:101AB000F80180839183A283B383FE01E754FE4F34
:101AC000608171818281938120E030E040E85FE3B2
:101AD0000E941D04882344F4FE01E954FE4F81E076
:101AE00090E09183808364C0FE01E754FE4F6081E3
:101AF00071818281938120E03FEF4FE757E40E949C
:101B0000BD0318160CF043C0FE01E354FE4F608184
:101B100071818281938120E030E040E251E40E94B3
:101B20001702DC01CB018E0109541E4FBC01CD010F
:101B30000E944100DC01CB01F801918380831FC02A
:101B4000FE01EB54FE4F88EC90E091838083FE0110
:101B5000EB54FE4F808191810197F1F7FE01EB5428
:101B6000FE4F91838083DE01A954BE4FFE01E954EC
:101B7000FE4F80819181019711969C938E93FE0177
:101B8000E954FE4F808191810097D1F627C08E01E4
:101B900009541E4FFE01E754FE4F6081718182811E
:101BA00093810E944100DC01CB01F8019183808385
:101BB000DE01AD54BE4FFE01E954FE4F808191819C
:101BC0008D939C93FE01ED54FE4F8081918101978E
:101BD000F1F7FE01ED54FE4F918380830E941F3B7D
:101BE0008AEF90E060E040E00E94803A81E062E0AD
:101BF00040E00E94002A81E061E041E00E94002A6A
:101C00008AE10E94F026FE01E155FE4F80E090E05F
:101C1000A6E9B4E480839183A283B3838E01055542
:101C20001E4FFE01E155FE4F6081718182819381DB
:101C300020E030E04AEF54E40E941702DC01CB01BF
:101C4000F80180839183A283B383FE01E555FE4FA3
:101C5000608171818281938120E030E040E85FE320
:101C60000E941D04882344F4FE01E755FE4F81E0E5
:101C700090E09183808364C0FE01E555FE4F608152
:101C800071818281938120E03FEF4FE757E40E940A
:101C9000BD0318160CF043C0FE01E155FE4F6081F4
:101CA00071818281938120E030E040E251E40E9422
:101CB0001702DC01CB018E0107551E4FBC01CD017F
:101CC0000E944100DC01CB01F801918380831FC099
:101CD000FE01E955FE4F88EC90E091838083FE0180
:101CE000E955FE4F808191810197F1F7FE01E95599
:101CF000FE4F91838083DE01A755BE4FFE01E7555D
:101D0000FE4F80819181019711969C938E93FE01E5
:101D1000E755FE4F808191810097D1F627C08E0153
:101D200007551E4FFE01E555FE4F6081718182818E
:101D300093810E944100DC01CB01F80191838083F3
:101D4000DE01AB55BE4FFE01E755FE4F808191810C
:101D50008D939C93FE01EB55FE4F808191810197FD
:101D6000F1F7FE01EB55FE4F918380830E941F3BEC
:101D70008AE091E060E040E00E94803A81E061E02A
:101D800040E00E94002A81E062E041E00E94002AD7
:101D900084E20E94F026FE01EF55FE4F80E090E0C5
:101DA000A6E9B4E480839183A283B3838E010356B2
:101DB0001E4FFE01EF55FE4F60817181828193813C
:101DC00020E030E04AEF54E40E941702DC01CB012E
:101DD000F80180839183A283B383FE01E356FE4F13
:101DE000608171818281938120E030E040E85FE38F
:101DF0000E941D04882344F4FE01E556FE4F81E055
:101E000090E09183808364C0FE01E356FE4F6081C1
:101E100071818281938120E03FEF4FE757E40E9478
:101E2000BD0318160CF043C0FE01EF55FE4F608154
:101E300071818281938120E030E040E251E40E9490
:101E40001702DC01CB018E0105561E4FBC01CD01EE
:101E50000E944100DC01CB01F801918380831FC007
:101E6000FE01E756FE4F88EC90E091838083FE01EF
:101E7000E756FE4F808191810197F1F7FE01E75609
:101E8000FE4F91838083DE01A556BE4FFE01E556CD
:101E9000FE4F80819181019711969C938E93FE0154
:101EA000E556FE4F808191810097D1F627C08E01C3
:101EB00005561E4FFE01E356FE4F608171818281FF
:101EC00093810E944100DC01CB01F8019183808362
:101ED000DE01A956BE4FFE01E556FE4F808191817D
:101EE0008D939C93FE01E956FE4F8081918101976D
:101EF000F1F7FE01E956FE4F918380830E941F3B5C
:101F0000E8C0DE01AB5EBD4FFE01EB5EFD4F8081A0
:101F10008F5F8C938AE191E060E042E00E94803A1A
:101F200087E291E061E040E00E94803AFE01EB5ED2
:101F3000FD4F8081282F30E083E090E0821B930BDF
:101F40000E94333AFE01ED56FE4F80E090E0A8E497
:101F5000B4E480839183A283B3838E0101571E4F23
:101F6000FE01ED56FE4F608171818281938120E0F8
:101F700030E04AEF54E40E941702DC01CB01F80183
:101F800080839183A283B383FE01E157FE4F60817A
:101F900071818281938120E030E040E85FE30E941C
:101FA0001D04882344F4FE01E357FE4F81E090E0D6
:101FB0009183808364C0FE01E157FE4F608171818F
:101FC0008281938120E03FEF4FE757E40E94BD03F9
:101FD00018160CF043C0FE01ED56FE4F6081718172
:101FE0008281938120E030E040E251E40E941702B8
:101FF000DC01CB018E0103571E4FBC01CD010E94B5
:102000004100DC01CB01F801918380831FC0FE01F8
:10201000E557FE4F88EC90E091838083FE01E55701
:10202000FE4F808191810197F1F7FE01E557FE4F48
:1020300091838083DE01A357BE4FFE01E357FE4F1D
:1020400080819181019711969C938E93FE01E357B5
:10205000FE4F808191810097D1F627C08E010357F2
:102060001E4FFE01E157FE4F608171818281938195
:102070000E944100DC01CB01F80191838083DE01E5
:10208000A757BE4FFE01E357FE4F808191818D938C
:102090009C93FE01E757FE4F808191810197F1F7F4
:1020A000FE01E757FE4F918380830E941F3BFE0194
:1020B000EB5EFD4F8081833008F49DCA8AE091E099
:1020C00061E00E94B627FE01E95DFD4F81E080835B
:1020D00092CAFE01E35EFD4F8081282F30E0C65D8D
:1020E000DD4F39832883CA52D240C65DDD4F8881D7
:1020F0009981CA52D2408430910509F467C7C65D00
:10210000DD4FE881F981CA52D240E530F10504F58E
:10211000C65DDD4F28813981CA52D2402230310557
:1021200011F40C94DD1DC65DDD4F88819981CA5282
:10213000D240833091050CF05CC3C65DDD4FE88171
:10214000F981CA52D240E130F10529F10C941F26E1
:10215000C65DDD4F28813981CA52D2402431310514
:1021600011F40C945920C65DDD4F88819981CA52C3
:10217000D2408631910511F40C94A323C65DDD4F46
:10218000E881F981CA52D240ED30F10511F40C9486
:10219000BA1C0C941F260E941F3B83E391E060E071
:1021A00040E00E94803A83E491E061E044E00E94D4
:1021B000803ACE01825E9D4F0E94A426FE01E25E1F
:1021C000FD4F8081813309F0C0C00E941F3B8BE42A
:1021D00091E00E940A3AFE01EB57FE4F80E090E04A
:1021E000A8E4B3E480839183A283B3838E010F5765
:1021F0001E4FFE01EB57FE4F6081718182819381FA
:1022000020E030E04AEF54E40E941702DC01CB01E9
:10221000F80180839183A283B383FE01EF57FE4FC1
:10222000608171818281938120E030E040E85FE34A
:102230000E941D04882344F4FE01E158FE4F81E012
:1022400090E09183808364C0FE01EF57FE4F608170
:1022500071818281938120E03FEF4FE757E40E9434
:10226000BD0318160CF043C0FE01EB57FE4F608112
:1022700071818281938120E030E040E251E40E944C
:102280001702DC01CB018E0101581E4FBC01CD01AC
:102290000E944100DC01CB01F801918380831FC0C3
:1022A000FE01E358FE4F88EC90E091838083FE01AD
:1022B000E358FE4F808191810197F1F7FE01E358C9
:1022C000FE4F91838083DE01A158BE4FFE01E1588D
:1022D000FE4F80819181019711969C938E93FE0110
:1022E000E158FE4F808191810097D1F628C08E0180
:1022F00001581E4FFE01EF57FE4F608171818281B0
:1023000093810E944100DC01CB01F801918380831D
:10231000DE01A558BE4FFE01E158FE4F808191813C
:1023200011969C938E93FE01E558FE4F808191811A
:102330000197F1F7FE01E558FE4F91838083FE017E
:10234000E35EFD4F83E08083C4CEFE01E25EFD4F7D
:102350008081823309F0C5C00E941F3B80E591E077
:102360000E940A3AFE01E958FE4F80E090E0A8E49E
:10237000B3E480839183A283B3838E010D581E4FF3
:10238000FE01E958FE4F608171818281938120E0D6
:1023900030E04AEF54E40E941702DC01CB01F8015F
:1023A00080839183A283B383FE01ED58FE4F608149
:1023B00071818281938120E030E040E85FE30E94F8
:1023C0001D04882344F4FE01EF58FE4F81E090E0A5
:1023D0009183808364C0FE01ED58FE4F608171815E
:1023E0008281938120E03FEF4FE757E40E94BD03D5
:1023F00018160CF043C0FE01E958FE4F6081718150
:102400008281938120E030E040E251E40E94170293
:10241000DC01CB018E010F581E4FBC01CD010E9483
:102420004100DC01CB01F801918380831FC0FE01D4
:10243000E159FE4F88EC90E091838083FE01E159E1
:10244000FE4F808191810197F1F7FE01E159FE4F26
:1024500091838083DE01AF58BE4FFE01EF58FE4FDF
:1024600080819181019711969C938E93FE01EF5884
:10247000FE4F808191810097D1F628C08E010F58C0
:102480001E4FFE01ED58FE4F608171818281938164
:102490000E944100DC01CB01F80191838083DE01C1
:1024A000A359BE4FFE01EF58FE4F808191811196D6
:1024B0009C938E93FE01E359FE4F80819181019799
:1024C000F1F7FE01E359FE4F91838083FE01E35E45
:1024D000FD4F84E18083FE01E55EFD4F84E0808353
:1024E000F8CDFE01E25EFD4F8081833309F0C0C06C
:1024F0000E941F3B84E591E00E940A3AFE01E759E1
:10250000FE4F80E090E0A8E4B3E480839183A2834F
:10251000B3838E010B591E4FFE01E759FE4F6081B8
:1025200071818281938120E030E04AEF54E40E947F
:102530001702DC01CB01F80180839183A283B3836E
:10254000FE01EB59FE4F608171818281938120E011
:1025500030E040E85FE30E941D04882344F4FE015C
:10256000ED59FE4F81E090E09183808364C0FE01CD
:10257000EB59FE4F608171818281938120E03FEFB2
:102580004FE757E40E94BD0318160CF043C0FE014C
:10259000E759FE4F608171818281938120E030E0B4
:1025A00040E251E40E941702DC01CB018E010D597B
:1025B0001E4FBC01CD010E944100DC01CB01F8019E
:1025C000918380831FC0FE01EF59FE4F88EC90E09D
:1025D00091838083FE01EF59FE4F808191810197A5
:1025E000F1F7FE01EF59FE4F91838083DE01AD5973
:1025F000BE4FFE01ED59FE4F8081918101971196EA
:102600009C938E93FE01ED59FE4F8081918100973E
:10261000D1F628C08E010D591E4FFE01EB59FE4F19
:1026200060817181828193810E944100DC01CB0134
:10263000F80191838083DE01A15ABE4FFE01ED595E
:10264000FE4F8081918111969C938E93FE01E15AF9
:10265000FE4F808191810197F1F7FE01E15AFE4F13
:1026600091838083FE01E35EFD4F82E0808331CD64
:102670000E941F3B8AE591E00E940A3A86E691E0BB
:1026800061E040E00E94803AFE01E55AFE4F80E0A2
:1026900090E0A8E4B3E480839183A283B3838E01A6
:1026A000095A1E4FFE01E55AFE4F608171818281F9
:1026B000938120E030E04AEF54E40E941702DC01ED
:1026C000CB01F80180839183A283B383FE01E95A91
:1026D000FE4F608171818281938120E030E040E88B
:1026E0005FE30E941D04882344F4FE01EB5AFE4F71
:1026F00081E090E09183808364C0FE01E95AFE4F3F
:10270000608171818281938120E03FEF4FE757E440
:102710000E94BD0318160CF043C0FE01E55AFE4F9F
:10272000608171818281938120E030E040E251E458
:102730000E941702DC01CB018E010B5A1E4FBC0117
:10274000CD010E944100DC01CB01F801918380831F
:102750001FC0FE01ED5AFE4F88EC90E0918380830C
:10276000FE01ED5AFE4F808191810197F1F7FE0144
:10277000ED5AFE4F91838083DE01AB5ABE4FFE01BE
:10278000EB5AFE4F80819181019711969C938E9315
:10279000FE01EB5AFE4F808191810097D1F699CCD2
:1027A0008E010B5A1E4FFE01E95AFE4F6081718166
:1027B000828193810E944100DC01CB01F801918369
:1027C0008083DE01AF5ABE4FFE01EB5AFE4F80817F
:1027D000918111969C938E93FE01EF5AFE4F80815A
:1027E00091810197F1F7FE01EF5AFE4F91838083AB
:1027F00070CC0E941F3B80E791E060E040E00E94C7
:10280000803A81E891E061E043E00E94803ACE01A5
:10281000825E9D4F0E94A426FE01E25EFD4F8081F4
:10282000813309F084C10E941F3B8AE891E00E9435
:102830000A3AFE01E35BFE4F80E090E0A8E4B3E4D7
:1028400080839183A283B3838E01075B1E4FFE01B9
:10285000E35BFE4F608171818281938120E030E0F3
:102860004AEF54E40E941702DC01CB01F801808397
:102870009183A283B383FE01E75BFE4F6081718188
:102880008281938120E030E040E85FE30E941D04F4
:10289000882344F4FE01E95BFE4F81E090E09183E0
:1028A000808364C0FE01E75BFE4F6081718182819D
:1028B000938120E03FEF4FE757E40E94BD031816D5
:1028C0000CF043C0FE01E35BFE4F608171818281A9
:1028D000938120E030E040E251E40E941702DC01E5
:1028E000CB018E01095B1E4FBC01CD010E9441004E
:1028F000DC01CB01F801918380831FC0FE01EB5BFB
:10290000FE4F88EC90E091838083FE01EB5BFE4FED
:10291000808191810197F1F7FE01EB5BFE4F91837E
:102920008083DE01A95BBE4FFE01E95BFE4F808123
:102930009181019711969C938E93FE01E95BFE4F66
:10294000808191810097D1F627C08E01095B1E4FCF
:10295000FE01E75BFE4F60817181828193810E945D
:102960004100DC01CB01F80191838083DE01AD5B86
:10297000BE4FFE01E95BFE4F808191818D939C9358
:10298000FE01ED5BFE4F808191810197F1F7FE0121
:10299000ED5BFE4F9183808381E062E040E00E9426
:1029A000002A81E061E041E00E94002A8EE20E945C
:1029B000F026FE01E15CFE4F80E090E0A6E1B5E488
:1029C00080839183A283B3838E01055C1E4FFE0139
:1029D000E15CFE4F608171818281938120E030E073
:1029E0004AEF54E40E941702DC01CB01F801808316
:1029F0009183A283B383FE01E55CFE4F6081718108
:102A00008281938120E030E040E85FE30E941D0472
:102A1000882344F4FE01E75CFE4F81E090E091835F
:102A2000808364C0FE01E55CFE4F6081718182811C
:102A3000938120E03FEF4FE757E40E94BD03181653
:102A40000CF043C0FE01E15CFE4F60817181828128
:102A5000938120E030E040E251E40E941702DC0163
:102A6000CB018E01075C1E4FBC01CD010E944100CD
:102A7000DC01CB01F801918380831FC0FE01E95C7A
:102A8000FE4F88EC90E091838083FE01E95CFE4F6D
:102A9000808191810197F1F7FE01E95CFE4F9183FE
:102AA0008083DE01A75CBE4FFE01E75CFE4F8081A4
:102AB0009181019711969C938E93FE01E75CFE4FE6
:102AC000808191810097D1F627C08E01075C1E4F4F
:102AD000FE01E55CFE4F60817181828193810E94DD
:102AE0004100DC01CB01F80191838083DE01AB5C06
:102AF000BE4FFE01E75CFE4F808191818D939C93D8
:102B0000FE01EB5CFE4F808191810197F1F7FE01A0
:102B1000EB5CFE4F9183808381E062E041E00E94A4
:102B2000002A81E061E040E00E94002AD2CAFE0152
:102B3000E25EFD4F8081823309F0C0C00E941F3BDE
:102B40008FE891E00E940A3AFE01EF5CFE4F80E0C0
:102B500090E0A8E4B3E480839183A283B3838E01E1
:102B6000035D1E4FFE01EF5CFE4F6081718182812B
:102B7000938120E030E04AEF54E40E941702DC0128
:102B8000CB01F80180839183A283B383FE01E35DCF
:102B9000FE4F608171818281938120E030E040E8C6
:102BA0005FE30E941D04882344F4FE01E55DFE4FAF
:102BB00081E090E09183808364C0FE01E35DFE4F7D
:102BC000608171818281938120E03FEF4FE757E47C
:102BD0000E94BD0318160CF043C0FE01EF5CFE4FCF
:102BE000608171818281938120E030E040E251E494
:102BF0000E941702DC01CB018E01055D1E4FBC0156
:102C0000CD010E944100DC01CB01F801918380835A
:102C10001FC0FE01E75DFE4F88EC90E0918380834A
:102C2000FE01E75DFE4F808191810197F1F7FE0182
:102C3000E75DFE4F91838083DE01A55DBE4FFE01FF
:102C4000E55DFE4F80819181019711969C938E9353
:102C5000FE01E55DFE4F808191810097D1F628C08D
:102C60008E01055D1E4FFE01E35DFE4F60817181A7
:102C7000828193810E944100DC01CB01F8019183A4
:102C80008083DE01A95DBE4FFE01E55DFE4F8081C0
:102C9000918111969C938E93FE01E95DFE4F808198
:102CA00091810197F1F7FE01E95DFE4F91838083E9
:102CB000FE01E35EFD4F84E080830BCAFE01E25E0D
:102CC000FD4F8081803309F0C0C00E941F3B86E920
:102CD00091E00E940A3AFE01ED5DFE4F80E090E037
:102CE000A8E4B3E480839183A283B3838E01015E61
:102CF0001E4FFE01ED5DFE4F6081718182819381E7
:102D000020E030E04AEF54E40E941702DC01CB01DE
:102D1000F80180839183A283B383FE01E15EFE4FBD
:102D2000608171818281938120E030E040E85FE33F
:102D30000E941D04882344F4FE01E35EFE4F81E0FF
:102D400090E09183808364C0FE01E15EFE4F60816C
:102D500071818281938120E03FEF4FE757E40E9429
:102D6000BD0318160CF043C0FE01ED5DFE4F6081FF
:102D700071818281938120E030E040E251E40E9441
:102D80001702DC01CB018E01035E1E4FBC01CD0199
:102D90000E944100DC01CB01F801918380831FC0B8
:102DA000FE01E55EFE4F88EC90E091838083FE019A
:102DB000E55EFE4F808191810197F1F7FE01E55EAE
:102DC000FE4F91838083DE01A35EBE4FFE01E35E72
:102DD000FE4F80819181019711969C938E93FE0105
:102DE000E35EFE4F808191810097D1F628C08E016D
:102DF000035E1E4FFE01E15EFE4F608171818281A4
:102E000093810E944100DC01CB01F8019183808312
:102E1000DE01A75EBE4FFE01E35EFE4F8081918121
:102E200011969C938E93FE01E75EFE4F8081918107
:102E30000197F1F7FE01E75EFE4F91838083FE016B
:102E4000E35EFD4F81E0808344C90E941F3B8AE519
:102E500091E00E940A3A86E691E061E040E00E943B
:102E6000803AFE01EB5EFE4F80E090E0A8E4B3E420
:102E700080839183A283B3838E010F5E1E4FFE0178
:102E8000EB5EFE4F608171818281938120E030E0B2
:102E90004AEF54E40E941702DC01CB01F801808361
:102EA0009183A283B383FE01EF5EFE4F6081718147
:102EB0008281938120E030E040E85FE30E941D04BE
:102EC000882344F4FE01E15FFE4F81E090E09183AE
:102ED000808364C0FE01EF5EFE4F6081718182815C
:102EE000938120E03FEF4FE757E40E94BD0318169F
:102EF0000CF043C0FE01EB5EFE4F60817181828168
:102F0000938120E030E040E251E40E941702DC01AE
:102F1000CB018E01015F1E4FBC01CD010E9441001B
:102F2000DC01CB01F801918380831FC0FE01E35FC8
:102F3000FE4F88EC90E091838083FE01E35FFE4FBB
:102F4000808191810197F1F7FE01E35FFE4F91834C
:102F50008083DE01A15FBE4FFE01E15FFE4F8081F5
:102F60009181019711969C938E93FE01E15FFE4F34
:102F7000808191810097D1F6ACC88E01015F1E4F10
:102F8000FE01EF5EFE4F60817181828193810E941C
:102F90004100DC01CB01F80191838083DE01A55F54
:102FA000BE4FFE01E15FFE4F8081918111969C939F
:102FB0008E93FE01E55FFE4F808191810197F1F7CD
:102FC000FE01E55FFE4F9183808383C80E941F3B13
:102FD0008DE991E00E940A3A80E10E94F0260E9469
:102FE0002727FE01E45EFD4F8083FE01E45EFD4F76
:102FF0008081823029F486EA91E00E940A3A0FC06B
:10300000FE01E45EFD4F8081833029F48BEA91E07C
:103010000E940A3A04C082EB91E00E940A3A88EBCF
:1030200091E061E040E00E94803ACE01825E9D4FD7
:103030000E94A426FE01E25EFD4F8081813309F0EB
:1030400081C10E941F3B86EA91E00E940A3AFE017C
:10305000E95FFE4F80E090E0A8E4B3E480839183D1
:10306000A283B3838E010D5F1E4FFE01E95FFE4F09
:10307000608171818281938120E030E04AEF54E4E5
:103080000E941702DC01CB01F80180839183A283A7
:10309000B383FE01ED5FFE4F608171818281938178
:1030A00020E030E040E85FE30E941D04882344F400
:1030B000FE01EF5FFE4F81E090E09183808364C06A
:1030C000FE01ED5FFE4F608171818281938120E07E
:1030D0003FEF4FE757E40E94BD0318160CF043C0C2
:1030E000FE01E95FFE4F608171818281938120E062
:1030F00030E040E251E40E941702DC01CB018E0176
:103100000F5F1E4FBC01CD010E944100DC01CB01CD
:10311000F801918380831FC0FE01E150FF4F88ECCE
:1031200090E091838083FE01E150FF4F8081918187
:103130000197F1F7FE01E150FF4F91838083DE019B
:10314000AF5FBE4FFE01EF5FFE4F8081918101971F
:1031500011969C938E93FE01EF5FFE4F80819181CB
:103160000097D1F627C08E010F5F1E4FFE01ED5F65
:10317000FE4F60817181828193810E944100DC0158
:10318000CB01F80191838083DE01A350BF4FFE0184
:10319000EF5FFE4F808191818D939C93FE01E35000
:1031A000FF4F808191810197F1F7FE01E350FF4FBE
:1031B000918380838AE10E94F0268AEF90E060E0AC
:1031C00040E00E94803AFE01E750FF4F80E090E02F
:1031D000A6E9B4E480839183A283B3838E010B506C
:1031E0001F4FFE01E750FF4F608171818281938103
:1031F00020E030E04AEF54E40E941702DC01CB01EA
:10320000F80180839183A283B383FE01EB50FF4FCB
:10321000608171818281938120E030E040E85FE34A
:103220000E941D04882344F4FE01ED50FF4F81E00D
:1032300090E09183808364C0FE01EB50FF4F60817A
:1032400071818281938120E03FEF4FE757E40E9434
:10325000BD0318160CF043C0FE01E750FF4F60811C
:1032600071818281938120E030E040E251E40E944C
:103270001702DC01CB018E010D501F4FBC01CD01A7
:103280000E944100DC01CB01F801918380831FC0C3
:10329000FE01EF50FF4F88EC90E091838083FE01A8
:1032A000EF50FF4F808191810197F1F7FE01EF50C0
:1032B000FF4F91838083DE01AD50BF4FFE01ED5083
:1032C000FF4F80819181019711969C938E93FE010F
:1032D000ED50FF4F808191810097D1F627C08E017C
:1032E0000D501F4FFE01EB50FF4F608171818281B5
:1032F00093810E944100DC01CB01F801918380831E
:10330000DE01A151BF4FFE01ED50FF4F8081918141
:103310008D939C93FE01E151FF4F80819181019734
:10332000F1F7FE01E151FF4F9183808381E062E07C
:1033300040E00E94002A81E061E041E00E94002A12
:103340000C946910FE01E25EFD4F8081823309F02A
:1033500086C10E941F3B89EC91E00E940A3AFE015F
:10336000E551FF4F80E090E0A8E4B3E480839183CF
:10337000A283B3838E0109511F4FFE01E551FF4F18
:10338000608171818281938120E030E04AEF54E4D2
:103390000E941702DC01CB01F80180839183A28394
:1033A000B383FE01E951FF4F608171818281938176
:1033B00020E030E040E85FE30E941D04882344F4ED
:1033C000FE01EB51FF4F81E090E09183808364C068
:1033D000FE01E951FF4F608171818281938120E07C
:1033E0003FEF4FE757E40E94BD0318160CF043C0AF
:1033F000FE01E551FF4F608171818281938120E060
:1034000030E040E251E40E941702DC01CB018E0162
:103410000B511F4FBC01CD010E944100DC01CB01CB
:10342000F801918380831FC0FE01ED51FF4F88ECAE
:1034300090E091838083FE01ED51FF4F8081918167
:103440000197F1F7FE01ED51FF4F91838083DE017B
:10345000AB51BF4FFE01EB51FF4F8081918101972E
:1034600011969C938E93FE01EB51FF4F80819181C9
:103470000097D1F627C08E010B511F4FFE01E95175
:10348000FF4F60817181828193810E944100DC0144
:10349000CB01F80191838083DE01AF51BF4FFE0164
:1034A000EB51FF4F808191818D939C93FE01EF51F1
:1034B000FF4F808191810197F1F7FE01EF51FF4F9E
:1034C00091838083FE01E35EFD4F84E0808384E28C
:1034D0000E94F0268AE091E060E040E00E94803A9D
:1034E000FE01E352FF4F80E090E0A6E9B4E4808360
:1034F0009183A283B3838E0107521F4FFE01E352D3
:10350000FF4F608171818281938120E030E04AEF3A
:1035100054E40E941702DC01CB01F80180839183FF
:10352000A283B383FE01E752FF4F608171818281E4
:10353000938120E030E040E85FE30E941D0488238F
:1035400044F4FE01E952FF4F81E090E091838083D3
:1035500064C0FE01E752FF4F6081718182819381D7
:1035600020E03FEF4FE757E40E94BD0318160CF030
:1035700043C0FE01E352FF4F6081718182819381DC
:1035800020E030E040E251E40E941702DC01CB0170
:103590008E0109521F4FBC01CD010E944100DC0188
:1035A000CB01F801918380831FC0FE01EB52FF4FD6
:1035B00088EC90E091838083FE01EB52FF4F808185
:1035C00091810197F1F7FE01EB52FF4F91838083C8
:1035D000DE01A952BF4FFE01E952FF4F8081918168
:1035E000019711969C938E93FE01E952FF4F8081C3
:1035F00091810097D1F627C08E0109521F4FFE011D
:10360000E752FF4F60817181828193810E94410066
:10361000DC01CB01F80191838083DE01AD52BF4F05
:10362000FE01E952FF4F808191818D939C93FE01B1
:10363000ED52FF4F808191810197F1F7FE01ED522C
:10364000FF4F9183808381E061E040E00E94002A87
:1036500081E062E041E00E94002A0C946910FE01C2
:10366000E25EFD4F8081803309F0C1C00E941F3BA4
:1036700086E991E00E940A3AFE01E153FF4F80E0A3
:1036800090E0A8E4B3E480839183A283B3838E01A6
:1036900005531F4FFE01E153FF4F6081718182810D
:1036A000938120E030E04AEF54E40E941702DC01ED
:1036B000CB01F80180839183A283B383FE01E5539C
:1036C000FF4F608171818281938120E030E040E88A
:1036D0005FE30E941D04882344F4FE01E753FF4F7B
:1036E00081E090E09183808364C0FE01E553FF4F49
:1036F000608171818281938120E03FEF4FE757E441
:103700000E94BD0318160CF043C0FE01E153FF4FA9
:10371000608171818281938120E030E040E251E458
:103720000E941702DC01CB018E0107531F4FBC0121
:10373000CD010E944100DC01CB01F801918380831F
:103740001FC0FE01E953FF4F88EC90E09183808316
:10375000FE01E953FF4F808191810197F1F7FE014E
:10376000E953FF4F91838083DE01A753BF4FFE01D2
:10377000E753FF4F80819181019711969C938E931F
:10378000FE01E753FF4F808191810097D1F628C059
:103790008E0107531F4FFE01E553FF4F608171817A
:1037A000828193810E944100DC01CB01F801918369
:1037B0008083DE01AB53BF4FFE01E753FF4F808193
:1037C000918111969C938E93FE01EB53FF4F808164
:1037D00091810197F1F7FE01EB53FF4F91838083B5
:1037E000FE01E35EFD4F83E080830C9469100E942C
:1037F0001F3B8AE591E00E940A3A86E691E061E08B
:1038000040E00E94803AFE01EF53FF4F80E090E0DD
:10381000A8E4B3E480839183A283B3838E0103542D
:103820001F4FFE01EF53FF4F6081718182819381B1
:1038300020E030E04AEF54E40E941702DC01CB01A3
:10384000F80180839183A283B383FE01E354FF4F89
:10385000608171818281938120E030E040E85FE304
:103860000E941D04882344F4FE01E554FF4F81E0CB
:1038700090E09183808365C0FE01E354FF4F608137
:1038800071818281938120E03FEF4FE757E40E94EE
:10389000BD0318160CF044C0FE01EF53FF4F6081CA
:1038A00071818281938120E030E040E251E40E9406
:1038B0001702DC01CB018E0105541F4FBC01CD0165
:1038C0000E944100DC01CB01F801918380831FC07D
:1038D000FE01E754FF4F88EC90E091838083FE0166
:1038E000E754FF4F808191810197F1F7FE01E75482
:1038F000FF4F91838083DE01A554BF4FFE01E55445
:10390000FF4F80819181019711969C938E93FE01C8
:10391000E554FF4F808191810097D1F60C94691096
:103920008E0105541F4FFE01E354FF4F60817181EA
:10393000828193810E944100DC01CB01F8019183D7
:103940008083DE01A954BF4FFE01E554FF4F808103
:10395000918111969C938E93FE01E954FF4F8081D3
:1039600091810197F1F7FE01E954FF4F9183808324
:103970000C9469108FEC91E060E040E00E94803A86
:103980008FED91E061E040E00E94803A81E060E0EC
:103990000E94563ACE01825E9D4F0E94A426FE01EF
:1039A000E25EFD4F80810E945833FE01E25EFD4FD2
:1039B0008081FE01E65EFD4F80538083CE01825EF2
:1039C0009D4F0E94A426FE01E25EFD4F80810E9471
:1039D0005833FE01E25EFD4F8081FE01E75EFD4F40
:1039E00080538083FE01E65EFD4F8081882F90E04A
:1039F0009C01220F331FC901880F991F880F991F3F
:103A0000820F931F982FDE01A85EBD4FFE01E75E77
:103A1000FD4F8081890F8C930E941F3B82EE91E0C5
:103A20000E940A3AFE01E85EFD4F8081882F90E0F7
:103A30000E94333AFE01ED54FF4F80E090E0A8E48D
:103A4000B4E480839183A283B3838E0101551F4F19
:103A5000FE01ED54FF4F608171818281938120E0EE
:103A600030E04AEF54E40E941702DC01CB01F80178
:103A700080839183A283B383FE01E155FF4F608170
:103A800071818281938120E030E040E85FE30E9411
:103A90001D04882344F4FE01E355FF4F81E090E0CC
:103AA0009183808364C0FE01E155FF4F6081718185
:103AB0008281938120E03FEF4FE757E40E94BD03EE
:103AC00018160CF043C0FE01ED54FF4F6081718168
:103AD0008281938120E030E040E251E40E941702AD
:103AE000DC01CB018E0103551F4FBC01CD010E94AB
:103AF0004100DC01CB01F801918380831FC0FE01EE
:103B0000E555FF4F88EC90E091838083FE01E555F9
:103B1000FF4F808191810197F1F7FE01E555FF4F3D
:103B200091838083DE01A355BF4FFE01E355FF4F14
:103B300080819181019711969C938E93FE01E355AC
:103B4000FF4F808191810097D1F627C08E010355E8
:103B50001F4FFE01E155FF4F60817181828193818A
:103B60000E944100DC01CB01F80191838083DE01DA
:103B7000A755BF4FFE01E355FF4F808191818D9383
:103B80009C93FE01E755FF4F808191810197F1F7EA
:103B9000FE01E755FF4F9183808387E30E94F02663
:103BA000FE01E85EFD4F80810E94F026FE01E35E8B
:103BB000FD4F84E180830C9469100E941F3B80EFCD
:103BC00091E060E040E00E94803A81E092E061E0B4
:103BD00040E00E94803ACE01825E9D4F0E94A42662
:103BE000FE01E25EFD4F8081803309F0C1C00E947A
:103BF0001F3B86E991E00E940A3AFE01EB55FF4F18
:103C000080E090E0A8E4B3E480839183A283B3834F
:103C10008E010F551F4FFE01EB55FF4F60817181E3
:103C20008281938120E030E04AEF54E40E94170241
:103C3000DC01CB01F80180839183A283B383FE0171
:103C4000EF55FF4F608171818281938120E030E0E8
:103C500040E85FE30E941D04882344F4FE01E1561E
:103C6000FF4F81E090E09183808364C0FE01EF55B7
:103C7000FF4F608171818281938120E03FEF4FE7A8
:103C800057E40E94BD0318160CF043C0FE01EB552B
:103C9000FF4F608171818281938120E030E040E2BA
:103CA00051E40E941702DC01CB018E0101561F4F27
:103CB000BC01CD010E944100DC01CB01F8019183E0
:103CC00080831FC0FE01E356FF4F88EC90E0918394
:103CD0008083FE01E356FF4F808191810197F1F7C8
:103CE000FE01E356FF4F91838083DE01A156BF4F53
:103CF000FE01E156FF4F80819181019711969C93BF
:103D00008E93FE01E156FF4F808191810097D1F69D
:103D100028C08E0101561F4FFE01EF55FF4F6081F5
:103D20007181828193810E944100DC01CB01F80105
:103D300091838083DE01A556BF4FFE01E156FF4F00
:103D40008081918111969C938E93FE01E556FF4FE1
:103D5000808191810197F1F7FE01E556FF4F918334
:103D60008083FE01E35EFD4F81E080830C94691047
:103D7000FE01E25EFD4F8081813308F4D7C0FE0171
:103D8000E25EFD4F8081853308F0D0C00E941F3B6A
:103D900082E192E00E940A3AFE01E25EFD4F8081DC
:103DA0000E945833FE01E956FF4F80E090E0A8E4FE
:103DB000B3E480839183A283B3838E010D561F4F9A
:103DC000FE01E956FF4F608171818281938120E07D
:103DD00030E04AEF54E40E941702DC01CB01F80105
:103DE00080839183A283B383FE01ED56FF4F6081F0
:103DF00071818281938120E030E040E85FE30E949E
:103E00001D04882344F4FE01EF56FF4F81E090E04B
:103E10009183808364C0FE01ED56FF4F6081718104
:103E20008281938120E03FEF4FE757E40E94BD037A
:103E300018160CF043C0FE01E956FF4F60817181F6
:103E40008281938120E030E040E251E40E94170239
:103E5000DC01CB018E010F561F4FBC01CD010E942A
:103E60004100DC01CB01F801918380831FC0FE017A
:103E7000E157FF4F88EC90E091838083FE01E1578A
:103E8000FF4F808191810197F1F7FE01E157FF4FCC
:103E900091838083DE01AF56BF4FFE01EF56FF4F87
:103EA00080819181019711969C938E93FE01EF562C
:103EB000FF4F808191810097D1F628C08E010F5667
:103EC0001F4FFE01ED56FF4F60817181828193810A
:103ED0000E944100DC01CB01F80191838083DE0167
:103EE000A357BF4FFE01EF56FF4F8081918111967E
:103EF0009C938E93FE01E357FF4F80819181019740
:103F0000F1F7FE01E357FF4F91838083FE01E25EEC
:103F1000FD4F8081FE01E55EFD4F81538083FE01F0
:103F2000E35EFD4F84E180830C9469100E941F3B87
:103F30008AE591E00E940A3A86E691E061E040E07D
:103F40000E94803AFE01E757FF4F80E090E0A8E42E
:103F5000B3E480839183A283B3838E010B571F4FF9
:103F6000FE01E757FF4F608171818281938120E0DC
:103F700030E04AEF54E40E941702DC01CB01F80163
:103F800080839183A283B383FE01EB57FF4F60814F
:103F900071818281938120E030E040E85FE30E94FC
:103FA0001D04882344F4FE01ED57FF4F81E090E0AB
:103FB0009183808365C0FE01EB57FF4F6081718163
:103FC0008281938120E03FEF4FE757E40E94BD03D9
:103FD00018160CF044C0FE01E757FF4F6081718155
:103FE0008281938120E030E040E251E40E94170298
:103FF000DC01CB018E010D571F4FBC01CD010E948A
:104000004100DC01CB01F801918380831FC0FE01D8
:10401000EF57FF4F88EC90E091838083FE01EF57CC
:10402000FF4F808191810197F1F7FE01EF57FF4F1C
:1040300091838083DE01AD57BF4FFE01ED57FF4FE7
:1040400080819181019711969C938E93FE01ED578B
:10405000FF4F808191810097D1F60C9469108E01F9
:104060000D571F4FFE01EB57FF4F60817181828119
:1040700093810E944100DC01CB01F8019183808390
:10408000DE01A158BF4FFE01ED57FF4F80819181A6
:1040900011969C938E93FE01E158FF4F8081918190
:1040A0000197F1F7FE01E158FF4F918380830C9453
:1040B00069100E941F3B80E791E060E040E00E94B1
:1040C000803A81E891E061E043E00E94803ACE01CD
:1040D000825E9D4F0E94A426FE01E25EFD4F80811C
:1040E000813309F0D0C00E941F3B8AE891E00E9412
:1040F0000A3AFE01E558FF4F80E090E0A8E4B3E4FF
:1041000080839183A283B3838E0109581F4FFE01E0
:10411000E558FF4F608171818281938120E030E01A
:104120004AEF54E40E941702DC01CB01F8018083BE
:104130009183A283B383FE01E958FF4F60817181AF
:104140008281938120E030E040E85FE30E941D041B
:10415000882344F4FE01EB58FF4F81E090E0918307
:10416000808364C0FE01E958FF4F608171818281C4
:10417000938120E03FEF4FE757E40E94BD031816FC
:104180000CF043C0FE01E558FF4F608171818281D0
:10419000938120E030E040E251E40E941702DC010C
:1041A000CB018E010B581F4FBC01CD010E94410075
:1041B000DC01CB01F801918380831FC0FE01ED5823
:1041C000FF4F88EC90E091838083FE01ED58FF4F14
:1041D000808191810197F1F7FE01ED58FF4F9183A6
:1041E0008083DE01AB58BF4FFE01EB58FF4F80814B
:1041F0009181019711969C938E93FE01EB58FF4F8E
:10420000808191810097D1F628C08E010B581F4FF5
:10421000FE01E958FF4F60817181828193810E9484
:104220004100DC01CB01F80191838083DE01AF58AE
:10423000BF4FFE01EB58FF4F8081918111969C93F7
:104240008E93FE01EF58FF4F808191810197F1F726
:10425000FE01EF58FF4F91838083FE01E55EFD4F25
:104260008081843039F4FE01E35EFD4F8DE0808370
:104270000C946910FE01E55EFD4F8081875D0E9410
:10428000F0260C946910FE01E25EFD4F80818233BE
:1042900009F0C1C00E941F3B8FE891E00E940A3ADA
:1042A000FE01E359FF4F80E090E0A8E4B3E480838F
:1042B0009183A283B3838E0107591F4FFE01E359F7
:1042C000FF4F608171818281938120E030E04AEF6D
:1042D00054E40E941702DC01CB01F8018083918332
:1042E000A283B383FE01E759FF4F60817181828110
:1042F000938120E030E040E85FE30E941D048823C2
:1043000044F4FE01E959FF4F81E090E091838083FE
:1043100064C0FE01E759FF4F608171818281938102
:1043200020E03FEF4FE757E40E94BD0318160CF062
:1043300043C0FE01E359FF4F608171818281938107
:1043400020E030E040E251E40E941702DC01CB01A2
:104350008E0109591F4FBC01CD010E944100DC01B3
:10436000CB01F801918380831FC0FE01EB59FF4F01
:1043700088EC90E091838083FE01EB59FF4F8081B0
:1043800091810197F1F7FE01EB59FF4F91838083F3
:10439000DE01A959BF4FFE01E959FF4F808191818C
:1043A000019711969C938E93FE01E959FF4F8081EE
:1043B00091810097D1F628C08E0109591F4FFE0147
:1043C000E759FF4F60817181828193810E94410092
:1043D000DC01CB01F80191838083DE01AD59BF4F31
:1043E000FE01E959FF4F8081918111969C938E9334
:1043F000FE01ED59FF4F808191810197F1F7FE0198
:10440000ED59FF4F91838083FE01E35EFD4F86E10E
:1044100080830C946910FE01E25EFD4F8081803341
:1044200009F0CEC00E941F3B86E991E00E940A3A43
:10443000FE01E15AFF4F80E090E0A8E4B3E48083FE
:104440009183A283B3838E01055A1F4FFE01E15A67
:10445000FF4F608171818281938120E030E04AEFDB
:1044600054E40E941702DC01CB01F80180839183A0
:10447000A283B383FE01E55AFF4F6081718182817F
:10448000938120E030E040E85FE30E941D04882330
:1044900044F4FE01E75AFF4F81E090E0918380836E
:1044A00064C0FE01E55AFF4F608171818281938172
:1044B00020E03FEF4FE757E40E94BD0318160CF0D1
:1044C00043C0FE01E15AFF4F608171818281938177
:1044D00020E030E040E251E40E941702DC01CB0111
:1044E0008E01075A1F4FBC01CD010E944100DC0123
:1044F000CB01F801918380831FC0FE01E95AFF4F71
:1045000088EC90E091838083FE01E95AFF4F80811F
:1045100091810197F1F7FE01E95AFF4F9183808362
:10452000DE01A75ABF4FFE01E75AFF4F80819181FC
:10453000019711969C938E93FE01E75AFF4F80815D
:1045400091810097D1F628C08E01075A1F4FFE01B6
:10455000E55AFF4F60817181828193810E94410001
:10456000DC01CB01F80191838083DE01AB5ABF4FA0
:10457000FE01E75AFF4F8081918111969C938E93A3
:10458000FE01EB5AFF4F808191810197F1F7FE0107
:10459000EB5AFF4F91838083FE01E55EFD4F8081E2
:1045A000843039F4FE01E35EFD4F81E080830C949A
:1045B0006910FE01E35EFD4F82E080830C94691078
:1045C0000E941F3B8AE591E00E940A3A86E691E04C
:1045D00061E040E00E94803AFE01EF5AFF4F80E028
:1045E00090E0A8E4B3E480839183A283B3838E0137
:1045F000035B1F4FFE01EF5AFF4F60817181828183
:10460000938120E030E04AEF54E40E941702DC017D
:10461000CB01F80180839183A283B383FE01E35B26
:10462000FF4F608171818281938120E030E040E81A
:104630005FE30E941D04882344F4FE01E55BFF4F05
:1046400081E090E09183808365C0FE01E35BFF4FD2
:10465000608171818281938120E03FEF4FE757E4D1
:104660000E94BD0318160CF044C0FE01EF5AFF4F24
:10467000608171818281938120E030E040E251E4E9
:104680000E941702DC01CB018E01055B1F4FBC01AC
:10469000CD010E944100DC01CB01F80191838083B0
:1046A0001FC0FE01E75BFF4F88EC90E091838083A1
:1046B000FE01E75BFF4F808191810197F1F7FE01D9
:1046C000E75BFF4F91838083DE01A55BBF4FFE0157
:1046D000E55BFF4F80819181019711969C938E93AA
:1046E000FE01E55BFF4F808191810097D1F60C942C
:1046F00069108E01055B1F4FFE01E35BFF4F608178
:104700007181828193810E944100DC01CB01F8011B
:1047100091838083DE01A95BBF4FFE01E55BFF4F04
:104720008081918111969C938E93FE01E95BFF4FEE
:10473000808191810197F1F7FE01E95BFF4F918341
:1047400080830C9469100E941F3BFE01E55EFD4FC3
:104750008081843029F480E591E00E940A3A0DC0FE
:1047600082E192E00E940A3AFE01E55EFD4F8081FF
:10477000882F90E001960E94333A87E192E00E94F0
:104780000A3AFE01E55EFD4F8081855F0E94F026BA
:104790000E942727FE01E45EFD4F8083FE01E45E58
:1047A000FD4F8081813029F48CE192E00E940A3A29
:1047B0000FC0FE01E45EFD4F8081882329F48FE164
:1047C00092E00E940A3A04C082EB91E00E940A3A09
:1047D00083E292E061E040E00E94803ACE01825E96
:1047E0009D4F0E94A426FE01E25EFD4F8081813331
:1047F00009F095C00E941F3B8CE192E00E940A3AAA
:10480000FE01E55EFD4F80818B5E0E94F026FE0179
:10481000ED5BFF4F80E090E0A8E4B3E480839183F8
:10482000A283B3838E01015C1F4FFE01ED5BFF4F3E
:10483000608171818281938120E030E04AEF54E40D
:104840000E941702DC01CB01F80180839183A283CF
:10485000B383FE01FF96608171818281938120E0A4
:1048600030E040E85FE30E941D0488232CF481E0DF
:1048700090E09EAF8DAF47C0FE01FF9660817181D1
:104880008281938120E03FEF4FE757E40E94BD0310
:1048900018166CF5FE01ED5BFF4F6081718182811E
:1048A000938120E030E040E251E40E941702DC01F5
:1048B000CB01BC01CD010E944100DC01CB019EAFC8
:1048C0008DAF0FC088EC90E09CAF8BAF8BAD9CADF3
:1048D0000197F1F79CAF8BAF8DAD9EAD01979EAF69
:1048E0008DAF8DAD9EAD009769F70C946910FE01F8
:1048F000FF9660817181828193810E944100DC0179
:10490000CB019EAF8DAF8DAD9EAD9AAF89AF89AD16
:104910009AAD0197F1F79AAF89AF0C946910FE0137
:10492000E25EFD4F8081823309F082C00E941F3B0E
:104930008FE192E00E940A3AFE01E55EFD4F808120
:10494000815E0E94F02680E090E0A8E4B3E48DABA5
:104950009EABAFABB8AF6DA97EA98FA998AD20E093
:1049600030E04AEF54E40E941702DC01CB0189AB2E
:104970009AABABABBCAB69A97AA98BA99CA920E087
:1049800030E040E85FE30E941D0488232CF481E0BE
:1049900090E098AB8FA740C069A97AA98BA99CA980
:1049A00020E03FEF4FE757E40E94BD03181654F58F
:1049B0006DA97EA98FA998AD20E030E040E251E4D6
:1049C0000E941702DC01CB01BC01CD010E94410015
:1049D000DC01CB0198AB8FA70FC088EC90E09EA7BD
:1049E0008DA78DA59EA50197F1F79EA78DA78FA5F1
:1049F00098A9019798AB8FA78FA598A9009769F7F9
:104A00000C94691069A97AA98BA99CA90E944100FC
:104A1000DC01CB0198AB8FA78FA598A99CA78BA78A
:104A20008BA59CA50197F1F79CA78BA70C94691007
:104A3000FE01E25EFD4F8081803309F07FC00E945D
:104A40001F3B86E991E00E940A3A80E090E0A8E4EA
:104A5000B3E48FA398A7A9A7BAA76FA178A589A542
:104A60009AA520E030E04AEF54E40E941702DC01EE
:104A7000CB018BA39CA3ADA3BEA36BA17CA18DA1F5
:104A80009EA120E030E040E85FE30E941D048823FF
:104A90002CF481E090E09AA389A33FC06BA17CA194
:104AA0008DA19EA120E03FEF4FE757E40E94BD0398
:104AB00018164CF56FA178A589A59AA520E030E0DD
:104AC00040E251E40E941702DC01CB01BC01CD01A0
:104AD0000E944100DC01CB019AA389A30FC088EC9E
:104AE00090E098A38F8F8F8D98A10197F1F798A3ED
:104AF0008F8F89A19AA101979AA389A389A19AA1CD
:104B0000009769F714C06BA17CA18DA19EA10E94A2
:104B10004100DC01CB019AA389A389A19AA19E8FB0
:104B20008D8F8D8D9E8D0197F1F79E8F8D8FFE015C
:104B3000E35EFD4F84E180830C9469100E941F3B6B
:104B40008AE591E00E940A3A86E691E061E040E061
:104B50000E94803A80E090E0A8E4B3E4898F9A8FC5
:104B6000AB8FBC8F698D7A8D8B8D9C8D20E030E072
:104B70004AEF54E40E941702DC01CB018D8B9E8B1F
:104B8000AF8BB88F6D897E898F89988D20E030E05A
:104B900040E85FE30E941D0488232CF481E090E04C
:104BA0009C8B8B8B40C06D897E898F89988D20E08E
:104BB0003FEF4FE757E40E94BD03181654F5698D87
:104BC0007A8D8B8D9C8D20E030E040E251E40E9494
:104BD0001702DC01CB01BC01CD010E944100DC01C8
:104BE000CB019C8B8B8B0FC088EC90E09A8B898BD0
:104BF00089899A890197F1F79A8B898B8B899C898E
:104C000001979C8B8B8B8B899C89009769F70C94FF
:104C100069106D897E898F89988D0E944100DC0121
:104C2000CB019C8B8B8B8B899C89988B8F878F85F5
:104C300098890197F1F7988B8F870C9469100E94DF
:104C40001F3B8AE591E00E940A3A86E691E061E026
:104C500040E00E94803A80E090E0A8E4B3E48B87D3
:104C60009C87AD87BE876B857C858D859E8520E082
:104C700030E04AEF54E40E941702DC01CB018F833D
:104C80009887A987BA876F81788589859A8520E07A
:104C900030E040E85FE30E941D0488232CF481E0AB
:104CA00090E09E838D833FC06F81788589859A854A
:104CB00020E03FEF4FE757E40E94BD0318164CF584
:104CC0006B857C858D859E8520E030E040E251E457
:104CD0000E941702DC01CB01BC01CD010E94410002
:104CE000DC01CB019E838D830FC088EC90E09C8318
:104CF0008B838B819C810197F1F79C838B838D81C2
:104D00009E8101979E838D838D819E81009769F797
:104D100014C06F81788589859A850E944100DC01E5
:104D2000CB019E838D838D819E819A838983898126
:104D30009A810197F1F79A838983FE01E35EFD4F23
:104D400081E080830C946910DF93CF9300D00F92A1
:104D5000CDB7DEB79B838A838FEF898303C00E9420
:104D60009C3B898389818F3FD1F3EA81FB818981D3
:104D700080830F900F900F90CF91DF910895DF9374
:104D8000CF93CDB7DEB7A0E4B0E0E0E4F0E08081FF
:104D900080688C93A0E4B0E0E0E4F0E08081826081
:104DA0008C93A0E4B0E0E0E4F0E0808184608C9338
:104DB000E0E4F0E01082E9E2F0E083E38083AAE23D
:104DC000B0E0EAE2F0E0808180618C93AAE2B0E09A
:104DD000EAE2F0E0808188608C93CF91DF910895C2
:104DE000DF93CF930F92CDB7DEB78983EBE2F0E08C
:104DF0008081829586958770882F90E08170907071
:104E00000097A1F3ECE2F0E0898180830F90CF91CD
:104E1000DF910895DF93CF9300D0CDB7DEB79A83AB
:104E200089830BC0E981FA81208189819A81019669
:104E30009A838983822F0E94F026E981FA818081FA
:104E4000882381F70F900F90CF91DF910895DF9322
:104E5000CF93CDB7DEB7EBE2F0E08081881F8827E3
:104E6000881F8130C1F7ECE2F0E08081CF91DF91C3
:104E70000895DF93CF93CDB7DEB7E0E2F0E082E0B4
:104E80008083E1E2F0E01082E2E2F0E082E0808301
:104E9000E6E5F0E084E08083CF91DF910895DF9331
:104EA000CF93CDB7DEB7E6E5F0E084EA8083E6E5B0
:104EB000F0E080818823DCF7CF91DF910895DF93C4
:104EC000CF93CDB7DEB7E6E5F0E084E98083CF91FC
:104ED000DF910895DF93CF930F92CDB7DEB789832B
:104EE000E3E2F0E089818083E6E5F0E084E8808316
:104EF000E6E5F0E080818823DCF70F90CF91DF9129
:104F00000895DF93CF93CDB7DEB7E6E5F0E084EC0C
:104F10008083E6E5F0E080818823DCF7E3E2F0E0DF
:104F20008081CF91DF910895DF93CF93CDB7DEB726
:104F3000E6E5F0E084E88083E6E5F0E08081882320
:104F4000DCF7E3E2F0E08081CF91DF910895DF9319
:104F5000CF930F92CDB7DEB7E1E2F0E08081887F9A
:104F6000898389810F90CF91DF910895DF93CF934B
:104F700000D000D0CDB7DEB79A8389836B830E94BF
:104F80004F270E94A727883011F01C8228C08981F2
:104F90009A8180709770880F892F881F990B91953F
:104FA000806A0E946A270E94A727883111F01C821C
:104FB00016C089810E946A270E94A727883211F0B3
:104FC0001C820DC08B810E946A270E94A72788320D
:104FD00011F01C8204C00E945F2781E08C838C81C9
:104FE0000F900F900F900F90CF91DF910895DF9366
:104FF000CF9300D000D00F92CDB7DEB79A838983CC
:105000007C836B830E944F270E94A727883011F072
:105010001D8244C089819A8180709770880F892F82
:10502000881F990B9195806A0E946A270E94A72782
:10503000883111F01D8232C089810E946A270E9446
:10504000A727883211F01D8229C00E944F270E9495
:10505000A727803111F01D8221C089819A8180703B
:105060009770880F892F881F990B9195816A0E94EC
:105070006A270E94A727803411F01D820FC00E946A
:105080009427EB81FC8180830E94A727883511F04B
:105090001D8204C00E945F2781E08D838D810F9067
:1050A0000F900F900F900F90CF91DF910895DF93A5
:1050B000CF93CDB7DEB764970FB6F894DEBF0FBEBF
:1050C000CDBF998B888B7B8B6A8B4C8B1F868AC05C
:1050D0008F85282F30E088899989A901480F591FA9
:1050E0008F85282F30E08A899B89FC01E20FF31F0E
:1050F0002081CA01622F0E94B62780E090E0A0E2E2
:10510000B1E48B879C87AD87BE876B857C858D8559
:105110009E8520E030E04AEF54E40E941702DC0153
:10512000CB018F839887A987BA876F817885898516
:105130009A8520E030E040E85FE30E941D04882368
:105140002CF481E090E09E838D833FC06F81788551
:1051500089859A8520E03FEF4FE757E40E94BD0321
:1051600018164CF56B857C858D859E8520E030E09A
:1051700040E251E40E941702DC01CB01BC01CD01E9
:105180000E944100DC01CB019E838D830FC088EC1F
:1051900090E09C838B838B819C810197F1F79C83AA
:1051A0008B838D819E8101979E838D838D819E81CE
:1051B000009769F714C06F81788589859A850E9468
:1051C0004100DC01CB019E838D838D819E819A837A
:1051D000898389819A810197F1F79A8389838F85E1
:1051E0008F5F8F879F858C89981708F471CF64969D
:1051F0000FB6F894DEBF0FBECDBFCF91DF910895FB
:10520000DF93CF93CDB7DEB727970FB6F894DEBF05
:105210000FBECDBF89836A834B838B81882309F0BE
:1052200074C08981282F30E03F832E838E819F8137
:105230008130910559F12E813F81223031052CF4C6
:105240008E819F81009769F0D2C02E813F812230EC
:10525000310589F18E819F818330910509F440C029
:10526000C6C0AAE3B0E0EAE3F0E08081482F8A817B
:10527000282F30E081E090E0022E02C0880F991FB5
:105280000A94E2F7809584238C93B1C0A7E3B0E041
:10529000E7E3F0E08081482F8A81282F30E081E029
:1052A00090E0022E02C0880F991F0A94E2F78095C1
:1052B00084238C939CC0A4E3B0E0E4E3F0E080811D
:1052C000482F8A81282F30E081E090E0022E02C032
:1052D000880F991F0A94E2F7809584238C9387C0E6
:1052E000A1E3B0E0E1E3F0E08081482F8A81282F3C
:1052F00030E081E090E0022E02C0880F991F0A94EE
:10530000E2F7809584238C9372C08B81813009F001
:105310006EC08981282F30E03D832C838C819D8154
:105320008130910549F12C813D81223031052CF4E9
:105330008C819D81009761F05AC02C813D81223083
:10534000310571F18C819D8183309105E9F14FC068
:10535000AAE3B0E0EAE3F0E08081482F8A81282FB9
:1053600030E081E090E0022E02C0880F991F0A947D
:10537000E2F7842B8C933BC0A7E3B0E0E7E3F0E0D7
:105380008081482F8A81282F30E081E090E0022E32
:1053900002C0880F991F0A94E2F7842B8C9327C0D0
:1053A000A4E3B0E0E4E3F0E08081482F8A81282F75
:1053B00030E081E090E0022E02C0880F991F0A942D
:1053C000E2F7842B8C9313C0A1E3B0E0E1E3F0E0BB
:1053D0008081482F8A81282F30E081E090E0022EE2
:1053E00002C0880F991F0A94E2F7842B8C932796AA
:1053F0000FB6F894DEBF0FBECDBFCF91DF910895F9
:10540000DF93CF93CDB7DEB727970FB6F894DEBF03
:105410000FBECDBF89836A834B838B81882309F0BC
:1054200074C08981282F30E03F832E838E819F8135
:105430008130910559F12E813F81223031052CF4C4
:105440008E819F81009769F0D2C02E813F812230EA
:10545000310589F18E819F818330910509F440C027
:10546000C6C0ABE3B0E0EBE3F0E08081482F8A8177
:10547000282F30E081E090E0022E02C0880F991FB3
:105480000A94E2F7809584238C93B1C0A8E3B0E03E
:10549000E8E3F0E08081482F8A81282F30E081E026
:1054A00090E0022E02C0880F991F0A94E2F78095BF
:1054B00084238C939CC0A5E3B0E0E5E3F0E0808119
:1054C000482F8A81282F30E081E090E0022E02C030
:1054D000880F991F0A94E2F7809584238C9387C0E4
:1054E000A2E3B0E0E2E3F0E08081482F8A81282F38
:1054F00030E081E090E0022E02C0880F991F0A94EC
:10550000E2F7809584238C9372C08B81813009F0FF
:105510006EC08981282F30E03D832C838C819D8152
:105520008130910549F12C813D81223031052CF4E7
:105530008C819D81009761F05AC02C813D81223081
:10554000310571F18C819D8183309105E9F14FC066
:10555000ABE3B0E0EBE3F0E08081482F8A81282FB5
:1055600030E081E090E0022E02C0880F991F0A947B
:10557000E2F7842B8C933BC0A8E3B0E0E8E3F0E0D3
:105580008081482F8A81282F30E081E090E0022E30
:1055900002C0880F991F0A94E2F7842B8C9327C0CE
:1055A000A5E3B0E0E5E3F0E08081482F8A81282F71
:1055B00030E081E090E0022E02C0880F991F0A942B
:1055C000E2F7842B8C9313C0A2E3B0E0E2E3F0E0B7
:1055D0008081482F8A81282F30E081E090E0022EE0
:1055E00002C0880F991F0A94E2F7842B8C932796A8
:1055F0000FB6F894DEBF0FBECDBFCF91DF910895F7
:10560000DF93CF9300D000D000D0CDB7DEB7898331
:105610006A838981282F30E03D832C834C815D8112
:105620004130510549F18C819D818230910534F4DE
:105630002C813D812115310561F057C04C815D8180
:105640004230510561F18C819D8183309105D1F10A
:105650004CC0E9E3F0E08081282F30E08A81882F78
:1056600090E0A90102C0559547958A95E2F7CA01D5
:10567000582F51705B833AC0E6E3F0E08081282F19
:1056800030E08A81882F90E0A90102C055954795A6
:105690008A95E2F7CA01582F51705B8327C0E3E374
:1056A000F0E08081282F30E08A81882F90E0A901E6
:1056B00002C0559547958A95E2F7CA01582F517057
:1056C0005B8314C0E0E3F0E08081282F30E08A8122
:1056D000882F90E0A90102C0559547958A95E2F779
:1056E000CA01582F51705B8301C002C08B818E8329
:1056F0008E8126960FB6F894DEBF0FBECDBFCF9138
:10570000DF910895DF93CF93CDB7DEB76C970FB6D7
:10571000F894DEBF0FBECDBF80E061E041E00E94A3
:10572000002980E062E041E00E94002980E090E0F2
:10573000A0EAB1E4898F9A8FAB8FBC8F698D7A8D87
:105740008B8D9C8D20E030E04AEF54E40E941702DC
:10575000DC01CB018D8B9E8BAF8BB88F6D897E89E1
:105760008F89988D20E030E040E85FE30E941D04BF
:1057700088232CF481E090E09C8B8B8B3FC06D895B
:105780007E898F89988D20E03FEF4FE757E40E9494
:10579000BD0318164CF5698D7A8D8B8D9C8D20E09C
:1057A00030E040E251E40E941702DC01CB01BC0171
:1057B000CD010E944100DC01CB019C8B8B8B0FC083
:1057C00088EC90E09A8B898B89899A890197F1F707
:1057D0009A8B898B8B899C8901979C8B8B8B8B896E
:1057E0009C89009769F714C06D897E898F89988D8F
:1057F0000E944100DC01CB019C8B8B8B8B899C89A7
:10580000988B8F878F8598890197F1F7988B8F8771
:1058100080E063E041E00E94002980E064E041E034
:105820000E94002980E065E041E00E94002980E0BC
:1058300066E041E00E94002980E090E0A0EAB1E447
:105840008B879C87AD87BE876B857C858D859E8584
:1058500020E030E04AEF54E40E941702DC01CB0163
:105860008F839887A987BA876F81788589859A857C
:1058700020E030E040E85FE30E941D0488232CF420
:1058800081E090E09E838D833FC06F81788589851C
:105890009A8520E03FEF4FE757E40E94BD031816BA
:1058A0004CF56B857C858D859E8520E030E040E25F
:1058B00051E40E941702DC01CB01BC01CD010E9422
:1058C0004100DC01CB019E838D830FC088EC90E00A
:1058D0009C838B838B819C810197F1F79C838B83C5
:1058E0008D819E8101979E838D838D819E810097FE
:1058F00069F714C06F81788589859A850E94410077
:10590000DC01CB019E838D838D819E819A83898367
:1059100089819A810197F1F79A83898383E30E94B1
:10592000A62C82E30E94A62C88E20E94A62C8CE082
:105930000E94A62C81E00E94A62C6C960FB6F894CB
:10594000DEBF0FBECDBFCF91DF9108950F931F93A0
:10595000DF93CF93CDB7DEB7C559D0400FB6F894DB
:10596000DEBF0FBECDBFFE01EB56FF4F808380E050
:1059700061E040E00E94002AFE01EF56FF4F80E008
:1059800090E0A0E8BFE380839183A283B3838E017C
:1059900003571F4FFE01EF56FF4F608171818281D7
:1059A00093812BEA3AEA4AE250E40E941702DC01B2
:1059B000CB01F80180839183A283B383FE01E35777
:1059C000FF4F608171818281938120E030E040E867
:1059D0005FE30E941D04882334F4FE01E457FF4F67
:1059E00081E08083E0C0FE01E357FF4F6081718159
:1059F0008281938120E030E04FE753E40E94BD03B1
:105A000018160CF0C0C0FE01EF56FF4F6081718187
:105A10008281938120E030E04AE754E40E94110340
:105A2000DC01CB01FE01E857FF4F80839183A28305
:105A3000B3838E010C571F4FFE01E857FF4F608163
:105A400071818281938120E030E04AEF54E40E942A
:105A50001702DC01CB01F80180839183A283B38319
:105A6000FE01EC57FF4F608171818281938120E0BC
:105A700030E040E85FE30E941D04882344F4FE0107
:105A8000EE57FF4F81E090E09183808364C0FE0178
:105A9000EC57FF4F608171818281938120E03FEF5D
:105AA0004FE757E40E94BD0318160CF043C0FE01F7
:105AB000E857FF4F608171818281938120E030E05F
:105AC00040E251E40E941702DC01CB018E010E5727
:105AD0001F4FBC01CD010E944100DC01CB01F80148
